Loading in packages
Loading input files
Rows: 1833 Columns: 12
── Column specification ────────────────────────────────────────────────────────
Delimiter: "\t"
chr (8): chr, name, strand, spacer, target_chr, target_name, target_strand, ...
dbl (4): start, end, target_start, target_end

ℹ Use `spec()` to retrieve the full column specification for this data.
ℹ Specify the column types or set `show_col_types = FALSE` to quiet this message.
Preparing gene and perturbation coordinates
Calculating distances efficiently by chromosome
Processing chromosome: chr1
Processing chromosome: chr10
Processing chromosome: chr11
Processing chromosome: chr12
Processing chromosome: chr13
Processing chromosome: chr14
Processing chromosome: chr15
Processing chromosome: chr16
Processing chromosome: chr17
Processing chromosome: chr18
Processing chromosome: chr19
Processing chromosome: chr7
Processing chromosome: chr2
Processing chromosome: chr20
Processing chromosome: chr21
Processing chromosome: chr22
Processing chromosome: chr3
Processing chromosome: chr4
Processing chromosome: chr5
Processing chromosome: chr6
Processing chromosome: chr8
Processing chromosome: chr9
Processing chromosome: chrX
Combining all pairs
Adding target type information
Saving distance information for filtered pairs
Reporting all missing pairs

Found 9958 genes without any targets within 1MB:
                gene        gene_name gene_chr gene_start  gene_end
1    ENSG00000116213           WRAP73     chr1    3652761   3652761
2    ENSG00000078900             TP73     chr1    3652520   3652520
3    ENSG00000227589       AL136528.1     chr1    3668772   3668772
4    ENSG00000235131       AL136528.2     chr1    3714298   3714298
5    ENSG00000227372         TP73-AS1     chr1    3747373   3747373
6    ENSG00000162592           CCDC27     chr1    3746460   3746460
7    ENSG00000235169            SMIM1     chr1    3772761   3772761
8    ENSG00000130764           LRRC47     chr1    3796504   3796504
9    ENSG00000272153       AL365330.1     chr1    3785008   3785008
10   ENSG00000116198           CEP104     chr1    3857214   3857214
11   ENSG00000169598             DFFB     chr1    3857267   3857267
12   ENSG00000198912         C1orf174     chr1    3900293   3900293
13   ENSG00000236423        LINC01134     chr1    3900372   3900372
14   ENSG00000233304        LINC01346     chr1    3940565   3940565
15   ENSG00000226374        LINC01345     chr1    3948980   3948980
16   ENSG00000235054        LINC01777     chr1    4412027   4412027
17   ENSG00000227169         Z98747.1     chr1    4552145   4552145
18   ENSG00000232596        LINC01646     chr1    4571481   4571481
19   ENSG00000237728         Z97987.1     chr1    7389754   7389754
20   ENSG00000225126       AL365194.1     chr1    7441554   7441554
21   ENSG00000272078       AL139423.1     chr1   10639241  10639241
22   ENSG00000189337             KAZN     chr1   13892792  13892792
23   ENSG00000231606       AL357873.1     chr1   14223118  14223118
24   ENSG00000234593         KAZN-AS1     chr1   14391575  14391575
25   ENSG00000171729           TMEM51     chr1   15152532  15152532
26   ENSG00000204464         C1orf195     chr1   15171317  15171317
27   ENSG00000142621            FHAD1     chr1   15247272  15247272
28   ENSG00000233485       AL031283.2     chr1   15343876  15343876
29   ENSG00000236045       AL031283.3     chr1   15335464  15335464
30   ENSG00000228140       AL031283.1     chr1   15409433  15409433
31   ENSG00000142634            EFHD2     chr1   15409895  15409895
32   ENSG00000162438             CTRC     chr1   15438439  15438439
33   ENSG00000142615           CELA2A     chr1   15456728  15456728
34   ENSG00000215704           CELA2B     chr1   15465909  15465909
35   ENSG00000132906            CASP9     chr1   15526534  15526534
36   ENSG00000116138          DNAJC16     chr1   15526813  15526813
37   ENSG00000272510       AL121992.3     chr1   15565956  15565956
38   ENSG00000116771            AGMAT     chr1   15585110  15585110
39   ENSG00000237301       AL121992.1     chr1   15603626  15603626
40   ENSG00000197312             DDI2     chr1   15617500  15617500
41   ENSG00000215695           RSC1A1     chr1   15659869  15659869
42   ENSG00000271742       AL121992.2     chr1   15683128  15683128
43   ENSG00000116786          PLEKHM2     chr1   15684332  15684332
44   ENSG00000237938       AL450998.2     chr1   15736896  15736896
45   ENSG00000162461         SLC25A34     chr1   15736405  15736405
46   ENSG00000224459     SLC25A34-AS1     chr1   15749896  15749896
47   ENSG00000162460           TMEM82     chr1   15742422  15742422
48   ENSG00000162458           FBLIM1     chr1   15756607  15756607
49   ENSG00000179743         FLJ37453     chr1   15848147  15848147
50   ENSG00000065526             SPEN     chr1   15847864  15847864
51   ENSG00000116809           ZBTB17     chr1   15976132  15976132
52   ENSG00000183888            SRARP     chr1   16004236  16004236
53   ENSG00000233078       AL355994.3     chr1   16006671  16006671
54   ENSG00000173641            HSPB7     chr1   16019594  16019594
55   ENSG00000186510           CLCNKA     chr1   16018875  16018875
56   ENSG00000184908           CLCNKB     chr1   16043736  16043736
57   ENSG00000185519          FAM131C     chr1   16073632  16073632
58   ENSG00000142627            EPHA2     chr1   16156087  16156087
59   ENSG00000227959       AL451042.2     chr1   16155211  16155211
60   ENSG00000224621       AL451042.1     chr1   16159266  16159266
61   ENSG00000234166     ARHGEF19-AS1     chr1   16197854  16197854
62   ENSG00000142632         ARHGEF19     chr1   16212609  16212609
63   ENSG00000132881          CPLANE2     chr1   16237162  16237162
64   ENSG00000037637           FBXO42     chr1   16352454  16352454
65   ENSG00000055070            SZRD1     chr1   16352575  16352575
66   ENSG00000187144          SPATA21     chr1   16437424  16437424
67   ENSG00000157191           NECAP2     chr1   16440672  16440672
68   ENSG00000226029        LINC01772     chr1   16460948  16460948
69   ENSG00000121904            CSMD2     chr1   34165842  34165842
70   ENSG00000176256            HMGB4     chr1   33860475  33860475
71   ENSG00000231163        CSMD2-AS1     chr1   33868953  33868953
72   ENSG00000142698          C1orf94     chr1   34166883  34166883
73   ENSG00000163866           SMIM12     chr1   34859816  34859816
74   ENSG00000189280             GJB5     chr1   34755047  34755047
75   ENSG00000189433             GJB4     chr1   34759741  34759741
76   ENSG00000255811       AL121988.1     chr1   34788097  34788097
77   ENSG00000188910             GJB3     chr1   34781189  34781189
78   ENSG00000187513             GJA4     chr1   34792998  34792998
79   ENSG00000230163       AL122010.1     chr1   34850694  34850694
80   ENSG00000116544           DLGAP3     chr1   34929585  34929585
81   ENSG00000271741       AC114490.2     chr1   35031741  35031741
82   ENSG00000243749          TMEM35B     chr1   34985353  34985353
83   ENSG00000163867            ZMYM6     chr1   35031968  35031968
84   ENSG00000197056            ZMYM1     chr1   35032172  35032172
85   ENSG00000116560             SFPQ     chr1   35193148  35193148
86   ENSG00000146463            ZMYM4     chr1   35268967  35268967
87   ENSG00000227409        ZMYM4-AS1     chr1   35366077  35366077
88   ENSG00000142687        KIAA0319L     chr1   35557950  35557950
89   ENSG00000020129             NCDN     chr1   35557473  35557473
90   ENSG00000239636       AC004865.2     chr1   35577729  35577729
91   ENSG00000116819           TFAP2E     chr1   35573370  35573370
92   ENSG00000126067            PSMB2     chr1   35641844  35641844
93   ENSG00000142686         C1orf216     chr1   35719472  35719472
94   ENSG00000186094            AGBL4     chr1   50023913  50023913
95   ENSG00000162373            BEND5     chr1   48776969  48776969
96   ENSG00000229846       AC099788.1     chr1   49025595  49025595
97   ENSG00000230114       AL590432.1     chr1   49257411  49257411
98   ENSG00000162374           ELAVL4     chr1   50048014  50048014
99   ENSG00000237337       AL592182.2     chr1   50175868  50175868
100  ENSG00000233407       AL592182.1     chr1   50223127  50223127
101  ENSG00000142700           DMRTA2     chr1   50423500  50423500
102  ENSG00000225767       AL049637.1     chr1   50461469  50461469
103  ENSG00000260971       AC119674.1     chr1   56477687  56477687
104  ENSG00000162407            PLPP3     chr1   56645301  56645301
105  ENSG00000162409           PRKAA2     chr1   56645322  56645322
106  ENSG00000187889             FYB2     chr1   56819696  56819696
107  ENSG00000229913       AL360295.1     chr1   56826920  56826920
108  ENSG00000157131              C8A     chr1   56854806  56854806
109  ENSG00000021852              C8B     chr1   56966140  56966140
110  ENSG00000236341       AL161740.1     chr1   56963886  56963886
111  ENSG00000173406             DAB1     chr1   58546734  58546734
112  ENSG00000227935       AL390243.1     chr1   57386576  57386576
113  ENSG00000226759         DAB1-AS1     chr1   57860532  57860532
114  ENSG00000235038       AL445193.2     chr1   58060139  58060139
115  ENSG00000162600             OMA1     chr1   58546802  58546802
116  ENSG00000184292          TACSTD2     chr1   58577773  58577773
117  ENSG00000162601            MYSM1     chr1   58700092  58700092
118  ENSG00000177606              JUN     chr1   58784327  58784327
119  ENSG00000234807        LINC01135     chr1   58785128  58785128
120  ENSG00000272226       AL136985.2     chr1   58813342  58813342
121  ENSG00000231740       AL136985.1     chr1   58851254  58851254
122  ENSG00000232453       AC105277.1     chr1   58903747  58903747
123  ENSG00000237352        LINC01358     chr1   58933643  58933643
124  ENSG00000241042       AL592431.2     chr1   59056049  59056049
125  ENSG00000235215       AL592431.1     chr1   59078116  59078116
126  ENSG00000270457       AC093424.1     chr1   59289640  59289640
127  ENSG00000172456             FGGY     chr1   59296638  59296638
128  ENSG00000226883       AL035416.1     chr1   59789182  59789182
129  ENSG00000134709            HOOK1     chr1   59814786  59814786
130  ENSG00000134716           CYP2J2     chr1   59926790  59926790
131  ENSG00000162598          C1orf87     chr1   60073770  60073770
132  ENSG00000238242       AC097066.1     chr1   60114875  60114875
133  ENSG00000162607             USP1     chr1   62436297  62436297
134  ENSG00000116641            DOCK7     chr1   62688368  62688368
135  ENSG00000132855          ANGPTL3     chr1   62597487  62597487
136  ENSG00000235545       AC103923.1     chr1   62688482  62688482
137  ENSG00000125703            ATG4C     chr1   62784135  62784135
138  ENSG00000234318       AC099794.1     chr1   62896009  62896009
139  ENSG00000229537        LINC01739     chr1   63022504  63022504
140  ENSG00000227485       AL162400.1     chr1   63024207  63024207
141  ENSG00000229225       AL162400.2     chr1   63079031  63079031
142  ENSG00000203605       AC096543.1     chr1   63139250  63139250
143  ENSG00000224209        LINC00466     chr1   63317274  63317274
144  ENSG00000228734       AC096543.2     chr1   63249920  63249920
145  ENSG00000230798        FOXD3-AS1     chr1   63324441  63324441
146  ENSG00000187140            FOXD3     chr1   63323041  63323041
147  ENSG00000088035             ALG6     chr1   63367575  63367575
148  ENSG00000142856          ITGB3BP     chr1   63593721  63593721
149  ENSG00000203965           EFCAB7     chr1   63523372  63523372
150  ENSG00000116652           DLEU2L     chr1   63547082  63547082
151  ENSG00000079739             PGM1     chr1   63593276  63593276
152  ENSG00000185483             ROR1     chr1   63774022  63774022
153  ENSG00000223883        LINC01707     chr1   69055898  69055898
154  ENSG00000235446       AL512271.1     chr1   69249477  69249477
155  ENSG00000229639        LINC01758     chr1   69433255  69433255
156  ENSG00000033122            LRRC7     chr1   69568398  69568398
157  ENSG00000237919       AL158840.1     chr1   70031222  70031222
158  ENSG00000172260            NEGR1     chr1   72282734  72282734
159  ENSG00000225087       AL583808.1     chr1   72899140  72899140
160  ENSG00000227016       AL583808.2     chr1   72765031  72765031
161  ENSG00000233973        LINC01360     chr1   73306170  73306170
162  ENSG00000223479        LINC02238     chr1   73635216  73635216
163  ENSG00000162620           LRRIQ3     chr1   74198187  74198187
164  ENSG00000254685             FPGT     chr1   74198212  74198212
165  ENSG00000259030      FPGT-TNNI3K     chr1   74198235  74198235
166  ENSG00000116783           TNNI3K     chr1   74235401  74235401
167  ENSG00000237324       AC093158.1     chr1   74378802  74378802
168  ENSG00000233894       AC105271.1     chr1   74468195  74468195
169  ENSG00000162621           LRRC53     chr1   74512614  74512614
170  ENSG00000178965           ERICH3     chr1   74673738  74673738
171  ENSG00000234497       ERICH3-AS1     chr1   74577430  74577430
172  ENSG00000272864       AC135803.1     chr1   74699333  74699333
173  ENSG00000116791             CRYZ     chr1   74733408  74733408
174  ENSG00000162623             TYW3     chr1   74733152  74733152
175  ENSG00000229943       AC133865.1     chr1   74963314  74963314
176  ENSG00000261213       AC099786.3     chr1   75123927  75123927
177  ENSG00000224127       AC099786.1     chr1   75133058  75133058
178  ENSG00000162624             LHX8     chr1   75128434  75128434
179  ENSG00000224149       AC099786.2     chr1   75132576  75132576
180  ENSG00000137968          SLC44A5     chr1   75611116  75611116
181  ENSG00000117054            ACADM     chr1   75724347  75724347
182  ENSG00000137955          RABGGTB     chr1   75786197  75786197
183  ENSG00000057468             MSH4     chr1   75796882  75796882
184  ENSG00000154007            ASB17     chr1   75932431  75932431
185  ENSG00000225605       AC092813.1     chr1   75932479  75932479
186  ENSG00000230027       AC092813.2     chr1   76041691  76041691
187  ENSG00000184005       ST6GALNAC3     chr1   76074719  76074719
188  ENSG00000272855       AC104458.1     chr1   76636877  76636877
189  ENSG00000237552        LINC02567     chr1   76779267  76779267
190  ENSG00000117069       ST6GALNAC5     chr1   76867441  76867441
191  ENSG00000230498       AL035409.1     chr1   77067920  77067920
192  ENSG00000142892             PIGK     chr1   77219430  77219430
193  ENSG00000154027              AK5     chr1   77282051  77282051
194  ENSG00000233099       AC095030.1     chr1   77349585  77349585
195  ENSG00000036549       AC118549.1     chr1   77683419  77683419
196  ENSG00000077254            USP33     chr1   77759852  77759852
197  ENSG00000180488            MIGA1     chr1   77779624  77779624
198  ENSG00000235927         NEXN-AS1     chr1   77889539  77889539
199  ENSG00000162614             NEXN     chr1   77888513  77888513
200  ENSG00000162613            FUBP1     chr1   77979110  77979110
201  ENSG00000162616           DNAJB4     chr1   77979175  77979175
202  ENSG00000137960            GIPC2     chr1   77979542  77979542
203  ENSG00000273338       AC103591.3     chr1   78004554  78004554
204  ENSG00000122420            PTGFR     chr1   78303884  78303884
205  ENSG00000137959           IFI44L     chr1   78619922  78619922
206  ENSG00000137965            IFI44     chr1   78649796  78649796
207  ENSG00000162618           ADGRL4     chr1   79006718  79006718
208  ENSG00000235011       AL353651.1     chr1   79323769  79323769
209  ENSG00000260322       AC098657.2     chr1   80114943  80114943
210  ENSG00000225598       AL606519.1     chr1   80374621  80374621
211  ENSG00000224326       AL136234.1     chr1   80584363  80584363
212  ENSG00000234184        LINC01781     chr1   80535755  80535755
213  ENSG00000117114           ADGRL2     chr1   81306160  81306160
214  ENSG00000234953       AL138799.4     chr1   81557702  81557702
215  ENSG00000236676       AC117944.1     chr1   81625713  81625713
216  ENSG00000233290       AL157944.1     chr1   82848205  82848205
217  ENSG00000230817        LINC01362     chr1   82903183  82903183
218  ENSG00000236268        LINC01361     chr1   82986208  82986208
219  ENSG00000231364        LINC01712     chr1   83445967  83445967
220  ENSG00000122417            ODF2L     chr1   86396342  86396342
221  ENSG00000137975            CLCA2     chr1   86424086  86424086
222  ENSG00000016490            CLCA1     chr1   86468368  86468368
223  ENSG00000016602            CLCA4     chr1   86547078  86547078
224  ENSG00000236915       AL356270.1     chr1   86696311  86696311
225  ENSG00000261737       AL049597.2     chr1   86704462  86704462
226  ENSG00000097033          SH3GLB1     chr1   86704570  86704570
227  ENSG00000183291          SELENOF     chr1   86914424  86914424
228  ENSG00000153936           HS2ST1     chr1   86914648  86914648
229  ENSG00000267734       AL121989.1     chr1   86934891  86934891
230  ENSG00000267561       AC093155.3     chr1   86993009  86993009
231  ENSG00000267272        LINC01140     chr1   87129765  87129765
232  ENSG00000143013             LMO4     chr1   87328468  87328468
233  ENSG00000227290        LINC01364     chr1   87371655  87371655
234  ENSG00000237505         PKN2-AS1     chr1   88685204  88685204
235  ENSG00000065243             PKN2     chr1   88684222  88684222
236  ENSG00000231987        LINC01787     chr1   96374125  96374125
237  ENSG00000117569            PTBP2     chr1   96721665  96721665
238  ENSG00000188641             DPYD     chr1   97995000  97995000
239  ENSG00000232878         DPYD-AS1     chr1   97095923  97095923
240  ENSG00000235777         DPYD-AS2     chr1   97796921  97796921
241  ENSG00000225206         MIR137HG     chr1   98049863  98049863
242  ENSG00000259946       BX005019.1     chr1   97968814  97968814
243  ENSG00000226053        LINC01776     chr1   98210747  98210747
244  ENSG00000162627             SNX7     chr1   98661701  98661701
245  ENSG00000117598           PLPPR5     chr1   99005032  99005032
246  ENSG00000232825       AL445433.2     chr1   99004276  99004276
247  ENSG00000117600           PLPPR4     chr1   99263953  99263953
248  ENSG00000224445        LINC01708     chr1   99600995  99600995
249  ENSG00000099260            PALMD     chr1   99645943  99645943
250  ENSG00000156869            FRRS1     chr1   99766631  99766631
251  ENSG00000162688              AGL     chr1   99850084  99850084
252  ENSG00000228084       AC118553.1     chr1   99969864  99969864
253  ENSG00000117620          SLC35A3     chr1   99969351  99969351
254  ENSG00000156875          MFSD14A     chr1  100038097 100038097
255  ENSG00000241073       AC093019.2     chr1  100084471 100084471
256  ENSG00000156876            SASS6     chr1  100132955 100132955
257  ENSG00000122435           TRMT13     chr1  100133150 100133150
258  ENSG00000122477           LRRC39     chr1  100178273 100178273
259  ENSG00000137992              DBT     chr1  100249834 100249834
260  ENSG00000224616         RTCA-AS1     chr1  100266179 100266179
261  ENSG00000137996             RTCA     chr1  100266207 100266207
262  ENSG00000223906       AC104457.2     chr1  100344477 100344477
263  ENSG00000079335           CDC14A     chr1  100345001 100345001
264  ENSG00000228086       AL589990.1     chr1  100485997 100485997
265  ENSG00000181656            GPR88     chr1  100538137 100538137
266  ENSG00000230402        LINC01349     chr1  100640613 100640613
267  ENSG00000162692            VCAM1     chr1  100719742 100719742
268  ENSG00000162694            EXTL2     chr1  100895998 100895998
269  ENSG00000273204       AC104506.1     chr1  100894928 100894928
270  ENSG00000162695          SLC30A7     chr1  100896076 100896076
271  ENSG00000117543             DPH5     chr1  101026088 101026088
272  ENSG00000235795       AC093157.2     chr1  100995473 100995473
273  ENSG00000233184       AC093157.1     chr1  101025878 101025878
274  ENSG00000225938       AL109741.1     chr1  101236528 101236528
275  ENSG00000170989            S1PR1     chr1  101236865 101236865
276  ENSG00000231671        LINC01307     chr1  101323337 101323337
277  ENSG00000226715        LINC01709     chr1  101639548 101639548
278  ENSG00000118733            OLFM3     chr1  101997030 101997030
279  ENSG00000233359       AC114485.1     chr1  102389630 102389630
280  ENSG00000230864       AC099567.1     chr1  102853842 102853842
281  ENSG00000060718          COL11A1     chr1  103108872 103108872
282  ENSG00000230759       AC095032.2     chr1  103414879 103414879
283  ENSG00000224613       AC095032.1     chr1  103525483 103525483
284  ENSG00000185946            RNPC3     chr1  103525691 103525691
285  ENSG00000240038            AMY2B     chr1  103553815 103553815
286  ENSG00000243480            AMY2A     chr1  103616811 103616811
287  ENSG00000237763            AMY1A     chr1  103655290 103655290
288  ENSG00000174876            AMY1B     chr1  103696680 103696680
289  ENSG00000187733            AMY1C     chr1  103750406 103750406
290  ENSG00000215869       AC092506.1     chr1  104072983 104072983
291  ENSG00000230768        LINC01676     chr1  105618958 105618958
292  ENSG00000233047        LINC01677     chr1  106028277 106028277
293  ENSG00000237480       AL355306.2     chr1  105956694 105956694
294  ENSG00000237460        LINC01661     chr1  106818239 106818239
295  ENSG00000198890            PRMT6     chr1  107056679 107056679
296  ENSG00000232811       AL360270.1     chr1  110943467 110943467
297  ENSG00000121931            LRIF1     chr1  110964079 110964079
298  ENSG00000273010       AL360270.3     chr1  110963302 110963302
299  ENSG00000156171            DRAM2     chr1  111140216 111140216
300  ENSG00000134255            CEPT1     chr1  111139627 111139627
301  ENSG00000272982       AL355816.1     chr1  111181491 111181491
302  ENSG00000273221       AL355816.2     chr1  111185061 111185061
303  ENSG00000162777          DENND2D     chr1  111204535 111204535
304  ENSG00000064886           CHI3L2     chr1  111200771 111200771
305  ENSG00000134216             CHIA     chr1  111290862 111290862
306  ENSG00000229283       AL356387.1     chr1  111323981 111323981
307  ENSG00000173947             PIFO     chr1  111346288 111346288
308  ENSG00000085465            OVGP1     chr1  111427777 111427777
309  ENSG00000116455            WDR77     chr1  111449376 111449376
310  ENSG00000116459           ATP5PB     chr1  111448864 111448864
311  ENSG00000143110         C1orf162     chr1  111473792 111473792
312  ENSG00000121933           TMIGD3     chr1  111563962 111563962
313  ENSG00000116473            RAP1A     chr1  111542218 111542218
314  ENSG00000231346        LINC01160     chr1  111608723 111608723
315  ENSG00000197852            INKA2     chr1  111739424 111739424
316  ENSG00000227811        INKA2-AS1     chr1  111739841 111739841
317  ENSG00000064703            DDX20     chr1  111755245 111755245
318  ENSG00000171385            KCND3     chr1  111989155 111989155
319  ENSG00000237556        KCND3-AS1     chr1  111909336 111909336
320  ENSG00000231437        LINC01750     chr1  111989770 111989770
321  ENSG00000231246       AL445426.1     chr1  112360528 112360528
322  ENSG00000143079        CTTNBP2NL     chr1  112396181 112396181
323  ENSG00000134245            WNT2B     chr1  112466541 112466541
324  ENSG00000273483       AL354760.1     chr1  112518441 112518441
325  ENSG00000007341             ST7L     chr1  112620825 112620825
326  ENSG00000116489           CAPZA1     chr1  112619173 112619173
327  ENSG00000155363            MOV10     chr1  112673141 112673141
328  ENSG00000225075       AL603832.1     chr1  112696621 112696621
329  ENSG00000155366             RHOC     chr1  112707434 112707434
330  ENSG00000271810       AL603832.3     chr1  112711433 112711433
331  ENSG00000155367            PPM1J     chr1  112715477 112715477
332  ENSG00000261595       AL603832.2     chr1  112715672 112715672
333  ENSG00000184599          FAM19A3     chr1  112720419 112720419
334  ENSG00000215866        LINC01356     chr1  112850643 112850643
335  ENSG00000224167       AL390729.1     chr1  112850028 112850028
336  ENSG00000155380          SLC16A1     chr1  112957013 112957013
337  ENSG00000226419      SLC16A1-AS1     chr1  112956415 112956415
338  ENSG00000238198       AL357055.3     chr1  113073105 113073105
339  ENSG00000198799            LRIG2     chr1  113073209 113073209
340  ENSG00000081026            MAGI3     chr1  113390749 113390749
341  ENSG00000116793            PHTF1     chr1  113759489 113759489
342  ENSG00000081019            RSBN1     chr1  113812476 113812476
343  ENSG00000231128       AL137856.1     chr1  113812379 113812379
344  ENSG00000134242           PTPN22     chr1  113871759 113871759
345  ENSG00000226167        AP4B1-AS1     chr1  113856635 113856635
346  ENSG00000188761          BCL2L15     chr1  113887547 113887547
347  ENSG00000134262            AP4B1     chr1  113905201 113905201
348  ENSG00000118655          DCLRE1B     chr1  113905141 113905141
349  ENSG00000235527        HIPK1-AS1     chr1  113929492 113929492
350  ENSG00000163349            HIPK1     chr1  113929192 113929192
351  ENSG00000116774           OLFML3     chr1  113979391 113979391
352  ENSG00000134207             SYT6     chr1  114153919 114153919
353  ENSG00000232895       AL121999.1     chr1  114262278 114262278
354  ENSG00000197323           TRIM33     chr1  114511160 114511160
355  ENSG00000116752            BCAS2     chr1  114581639 114581639
356  ENSG00000175984          DENND2C     chr1  114670422 114670422
357  ENSG00000116748            AMPD1     chr1  114695618 114695618
358  ENSG00000188610           FAM72B     chr1  121185539 121185539
359  ENSG00000230806       SRGAP2-AS1     chr1  121398806 121398806
360  ENSG00000227082       AC244021.1     chr1  121396754 121396754
361  ENSG00000228826       AL592494.1     chr1  121510383 121510383
362  ENSG00000272583       AL592494.3     chr1  121518829 121518829
363  ENSG00000224857        LINC01691     chr1  121580524 121580524
364  ENSG00000234225       AC244394.2     chr1  147003618 147003618
365  ENSG00000131791           PRKAB2     chr1  147172550 147172550
366  ENSG00000237188       AC242426.2     chr1  147173186 147173186
367  ENSG00000131781             FMO5     chr1  147243050 147243050
368  ENSG00000131778            CHD1L     chr1  147242641 147242641
369  ENSG00000116128             BCL9     chr1  147541412 147541412
370  ENSG00000162836             ACP6     chr1  147670496 147670496
371  ENSG00000227139       AC241644.1     chr1  147697794 147697794
372  ENSG00000169474           SPRR1A     chr1  152985231 152985231
373  ENSG00000163209            SPRR3     chr1  153001747 153001747
374  ENSG00000169469           SPRR1B     chr1  153031202 153031202
375  ENSG00000163216           SPRR2D     chr1  153041931 153041931
376  ENSG00000241794           SPRR2A     chr1  153057537 153057537
377  ENSG00000196805           SPRR2B     chr1  153070840 153070840
378  ENSG00000203785           SPRR2E     chr1  153106184 153106184
379  ENSG00000244094           SPRR2F     chr1  153113515 153113515
380  ENSG00000159516           SPRR2G     chr1  153150869 153150869
381  ENSG00000229699       AL161636.1     chr1  153174518 153174518
382  ENSG00000203784            LELP1     chr1  153203443 153203443
383  ENSG00000203783             PRR9     chr1  153217584 153217584
384  ENSG00000203782              LOR     chr1  153259700 153259700
385  ENSG00000159527          PGLYRP3     chr1  153310718 153310718
386  ENSG00000163218          PGLYRP4     chr1  153348840 153348840
387  ENSG00000163220           S100A9     chr1  153357854 153357854
388  ENSG00000163221          S100A12     chr1  153375649 153375649
389  ENSG00000143546           S100A8     chr1  153391188 153391188
390  ENSG00000184330          S100A7A     chr1  153416524 153416524
391  ENSG00000163565            IFI16     chr1  158999968 158999968
392  ENSG00000163568             AIM2     chr1  159147096 159147096
393  ENSG00000162706            CADM3     chr1  159171609 159171609
394  ENSG00000225670        CADM3-AS1     chr1  159207973 159207973
395  ENSG00000213088            ACKR1     chr1  159203307 159203307
396  ENSG00000179639           FCER1A     chr1  159289714 159289714
397  ENSG00000196266           OR10J3     chr1  159314659 159314659
398  ENSG00000228560       AL513323.1     chr1  159469068 159469068
399  ENSG00000196184           OR10J1     chr1  159437845 159437845
400  ENSG00000224943       AL663023.1     chr1  159466321 159466321
401  ENSG00000184155           OR10J5     chr1  159536007 159536007
402  ENSG00000132703             APCS     chr1  159587825 159587825
403  ENSG00000132693              CRP     chr1  159714589 159714589
404  ENSG00000229588       AL390115.1     chr1  166334884 166334884
405  ENSG00000225325       AL583804.1     chr1  166452632 166452632
406  ENSG00000234142        LINC01675     chr1  166490039 166490039
407  ENSG00000034971             MYOC     chr1  171652683 171652683
408  ENSG00000117533            VAMP4     chr1  171742247 171742247
409  ENSG00000010165          METTL13     chr1  171781664 171781664
410  ENSG00000197959             DNM3     chr1  171841498 171841498
411  ENSG00000230630           DNM3OS     chr1  172144840 172144840
412  ENSG00000135845             PIGC     chr1  172444086 172444086
413  ENSG00000180999         C1orf105     chr1  172420688 172420688
414  ENSG00000094975             SUCO     chr1  172532349 172532349
415  ENSG00000117560            FASLG     chr1  172659018 172659018
416  ENSG00000224228       AL031599.1     chr1  172775905 172775905
417  ENSG00000224000         Z97198.1     chr1  172906900 172906900
418  ENSG00000235750         KIAA0040     chr1  175192999 175192999
419  ENSG00000230687       AL008626.1     chr1  175204849 175204849
420  ENSG00000260990         Z94057.1     chr1  175307218 175307218
421  ENSG00000116147              TNR     chr1  175743770 175743770
422  ENSG00000224718        LINC01657     chr1  175877343 175877343
423  ENSG00000227740       AL513329.1     chr1  175920513 175920513
424  ENSG00000143207             COP1     chr1  176207493 176207493
425  ENSG00000228686       AL590723.1     chr1  176017277 176017277
426  ENSG00000236021       AL359265.3     chr1  176207648 176207648
427  ENSG00000116183           PAPPA2     chr1  176463171 176463171
428  ENSG00000152092            ASTN1     chr1  177164973 177164973
429  ENSG00000198797           BRINP2     chr1  177171497 177171497
430  ENSG00000224968        LINC01645     chr1  177351586 177351586
431  ENSG00000227579       AL122019.1     chr1  177597709 177597709
432  ENSG00000236720        LINC01741     chr1  177700524 177700524
433  ENSG00000120341           SEC16B     chr1  177984303 177984303
434  ENSG00000224687       RASAL2-AS1     chr1  178093984 178093984
435  ENSG00000075391           RASAL2     chr1  178094141 178094141
436  ENSG00000240021            TEX35     chr1  178513077 178513077
437  ENSG00000213057         C1orf220     chr1  178542752 178542752
438  ENSG00000273384       AL137796.1     chr1  178651706 178651706
439  ENSG00000273062       AL449106.1     chr1  178726285 178726285
440  ENSG00000116191          RALGPS2     chr1  178725147 178725147
441  ENSG00000116194          ANGPTL1     chr1  178871052 178871052
442  ENSG00000116199           FAM20B     chr1  179025804 179025804
443  ENSG00000186283            TOR3A     chr1  179081377 179081377
444  ENSG00000143322             ABL2     chr1  179229684 179229684
445  ENSG00000057252            SOAT1     chr1  179293714 179293714
446  ENSG00000162779           AXDND1     chr1  179365720 179365720
447  ENSG00000261250       AL160286.3     chr1  179548922 179548922
448  ENSG00000116218            NPHS2     chr1  179575952 179575952
449  ENSG00000162782            TDRD5     chr1  179591613 179591613
450  ENSG00000243062       AL359853.3     chr1  179730217 179730217
451  ENSG00000143340          FAM163A     chr1  179743163 179743163
452  ENSG00000229407       AL359853.1     chr1  179818191 179818191
453  ENSG00000231966       AL359853.2     chr1  179836124 179836124
454  ENSG00000169905         TOR1AIP2     chr1  179877803 179877803
455  ENSG00000272906       AL353708.3     chr1  179882595 179882595
456  ENSG00000143337         TOR1AIP1     chr1  179882042 179882042
457  ENSG00000224691       AL133553.1     chr1  186177302 186177302
458  ENSG00000116690             PRG4     chr1  186296279 186296279
459  ENSG00000047410              TPR     chr1  186375693 186375693
460  ENSG00000157181             ODR4     chr1  186375838 186375838
461  ENSG00000262180             OCLM     chr1  186400572 186400572
462  ENSG00000229739       AL596220.1     chr1  186435161 186435161
463  ENSG00000116703              PDC     chr1  186461122 186461122
464  ENSG00000273198       AL096803.3     chr1  186521773 186521773
465  ENSG00000073756            PTGS2     chr1  186680427 186680427
466  ENSG00000273129           PACERR     chr1  186680622 186680622
467  ENSG00000116711          PLA2G4A     chr1  186828953 186828953
468  ENSG00000230426       ERVMER61-1     chr1  187070700 187070700
469  ENSG00000261182       AL596211.1     chr1  188218400 188218400
470  ENSG00000225006       AL929288.1     chr1  188508538 188508538
471  ENSG00000237283       AL691515.1     chr1  188710880 188710880
472  ENSG00000238054       AL691515.2     chr1  188888540 188888540
473  ENSG00000226486        LINC01035     chr1  188905688 188905688
474  ENSG00000232212        LINC01701     chr1  189775465 189775465
475  ENSG00000238270       AL591504.1     chr1  189868528 189868528
476  ENSG00000162670           BRINP3     chr1  190478404 190478404
477  ENSG00000225811       AL354771.1     chr1  190264898 190264898
478  ENSG00000237457        LINC01351     chr1  190478551 190478551
479  ENSG00000241505       AL391645.1     chr1  190480379 190480379
480  ENSG00000231175        LINC01720     chr1  190624890 190624890
481  ENSG00000023572            GLRX2     chr1  193106114 193106114
482  ENSG00000134371            CDC73     chr1  193121800 193121800
483  ENSG00000162630          B3GALT2     chr1  193186654 193186654
484  ENSG00000232077        LINC01031     chr1  193304745 193304745
485  ENSG00000226640       AL357793.1     chr1  193678894 193678894
486  ENSG00000237011       AL357793.2     chr1  193688429 193688429
487  ENSG00000227240       AL356272.1     chr1  194149473 194149473
488  ENSG00000231714       AL513348.1     chr1  194350943 194350943
489  ENSG00000227421        LINC01724     chr1  196061073 196061073
490  ENSG00000162687            KCNT2     chr1  196609225 196609225
491  ENSG00000000971              CFH     chr1  196651878 196651878
492  ENSG00000116785            CFHR3     chr1  196774795 196774795
493  ENSG00000244414            CFHR1     chr1  196819757 196819757
494  ENSG00000134365            CFHR4     chr1  196888014 196888014
495  ENSG00000080910            CFHR2     chr1  196943756 196943756
496  ENSG00000134389            CFHR5     chr1  196977556 196977556
497  ENSG00000143278             F13B     chr1  197067267 197067267
498  ENSG00000066279             ASPM     chr1  197146694 197146694
499  ENSG00000177888           ZBTB41     chr1  197200542 197200542
500  ENSG00000134376             CRB1     chr1  197268204 197268204
501  ENSG00000230260       AL136322.1     chr1  197447469 197447469
502  ENSG00000232537       AC092810.3     chr1  209155101 209155101
503  ENSG00000227940        LINC01696     chr1  209325456 209325456
504  ENSG00000231648        LINC01698     chr1  209367662 209367662
505  ENSG00000230937         MIR205HG     chr1  209428820 209428820
506  ENSG00000224260       AL023754.1     chr1  209567673 209567673
507  ENSG00000008118           CAMK1G     chr1  209583717 209583717
508  ENSG00000196878            LAMB3     chr1  209652466 209652466
509  ENSG00000227591       AL031316.1     chr1  209724125 209724125
510  ENSG00000123689             G0S2     chr1  209675420 209675420
511  ENSG00000117594          HSD11B1     chr1  209686178 209686178
512  ENSG00000009790         TRAF3IP3     chr1  209756032 209756032
513  ENSG00000162757          C1orf74     chr1  209784559 209784559
514  ENSG00000117595             IRF6     chr1  209806175 209806175
515  ENSG00000117597            UTP25     chr1  209828007 209828007
516  ENSG00000143469            SYT14     chr1  209938174 209938174
517  ENSG00000228255       AC096639.1     chr1  213731416 213731416
518  ENSG00000230461        PROX1-AS1     chr1  213988508 213988508
519  ENSG00000117707            PROX1     chr1  213983181 213983181
520  ENSG00000272167       AL606537.1     chr1  214030901 214030901
521  ENSG00000143499            SMYD2     chr1  214281102 214281102
522  ENSG00000152104           PTPN14     chr1  214552449 214552449
523  ENSG00000117724            CENPF     chr1  214603195 214603195
524  ENSG00000082482            KCNK2     chr1  215005775 215005775
525  ENSG00000136636            KCTD3     chr1  215567392 215567392
526  ENSG00000042781            USH2A     chr1  216423396 216423396
527  ENSG00000229242       AL358452.1     chr1  215886582 215886582
528  ENSG00000233620       AC093581.1     chr1  216072465 216072465
529  ENSG00000236292       AC138024.1     chr1  216194051 216194051
530  ENSG00000196482            ESRRG     chr1  217137755 217137755
531  ENSG00000092978          GPATCH2     chr1  217631082 217631082
532  ENSG00000162814          SPATA17     chr1  217631324 217631324
533  ENSG00000234070      SPATA17-AS1     chr1  217785120 217785120
534  ENSG00000231814        LINC00210     chr1  217892900 217892900
535  ENSG00000230714       AL355526.1     chr1  218031835 218031835
536  ENSG00000232100        LINC01653     chr1  218043505 218043505
537  ENSG00000162813            BPNT1     chr1  220090462 220090462
538  ENSG00000067704            IARS2     chr1  220094102 220094102
539  ENSG00000118873         RAB3GAP2     chr1  220272454 220272454
540  ENSG00000226927       AL451081.1     chr1  220360183 220360183
541  ENSG00000260505       AC096644.4     chr1  220401122 220401122
542  ENSG00000231529       AC096644.1     chr1  220487043 220487043
543  ENSG00000116141            MARK1     chr1  220528183 220528183
544  ENSG00000162817         C1orf115     chr1  220689845 220689845
545  ENSG00000117791            MARC2     chr1  220748225 220748225
546  ENSG00000186205            MARC1     chr1  220786759 220786759
547  ENSG00000221571      RNU6ATAC35P     chr1  220825620 220825620
548  ENSG00000272823       AL445423.1     chr1  220829211 220829211
549  ENSG00000238078        LINC01352     chr1  220829255 220829255
550  ENSG00000257551          HLX-AS1     chr1  220880140 220880140
551  ENSG00000136630              HLX     chr1  220879400 220879400
552  ENSG00000234754         C1orf140     chr1  221336296 221336296
553  ENSG00000232436       AL360013.2     chr1  221508559 221508559
554  ENSG00000143507           DUSP10     chr1  221742176 221742176
555  ENSG00000227925        LINC01655     chr1  221840666 221840666
556  ENSG00000238042        LINC02257     chr1  221978523 221978523
557  ENSG00000228437        LINC02474     chr1  221966341 221966341
558  ENSG00000232679        LINC01705     chr1  222064763 222064763
559  ENSG00000236230       AL356108.1     chr1  222387434 222387434
560  ENSG00000226643       AL513314.1     chr1  222454705 222454705
561  ENSG00000143512           HHIPL2     chr1  222548103 222548103
562  ENSG00000143498            TAF1A     chr1  222589933 222589933
563  ENSG00000225265        TAF1A-AS1     chr1  222589825 222589825
564  ENSG00000154305             MIA3     chr1  222618086 222618086
565  ENSG00000272750       AL592148.3     chr1  222661512 222661512
566  ENSG00000186063             AIDA     chr1  222713210 222713210
567  ENSG00000162819             BROX     chr1  222712553 222712553
568  ENSG00000197520          FAM177B     chr1  222737207 222737207
569  ENSG00000228106       AL392172.1     chr1  222815022 222815022
570  ENSG00000154309            DISP1     chr1  222872271 222872271
571  ENSG00000187554             TLR5     chr1  223143282 223143282
572  ENSG00000236846       AL359979.2     chr1  223144049 223144049
573  ENSG00000116574             RHOU     chr1  228735077 228735077
574  ENSG00000236975       AL137793.1     chr1  229094905 229094905
575  ENSG00000233920       AL162595.2     chr1  229227562 229227562
576  ENSG00000177800           TMEM78     chr1  229249636 229249636
577  ENSG00000177788       AL162595.1     chr1  229271028 229271028
578  ENSG00000168118            RAB4A     chr1  229271062 229271062
579  ENSG00000213029            SPHAR     chr1  229304857 229304857
580  ENSG00000237481       AL117350.1     chr1  229319403 229319403
581  ENSG00000154429            CCSAP     chr1  229343294 229343294
582  ENSG00000143632            ACTA1     chr1  229434098 229434098
583  ENSG00000069248           NUP133     chr1  229508341 229508341
584  ENSG00000226920       AL160004.1     chr1  229441020 229441020
585  ENSG00000223635       AL121990.1     chr1  229508501 229508501
586  ENSG00000135776           ABCB10     chr1  229558695 229558695
587  ENSG00000135801            TAF5L     chr1  229626047 229626047
588  ENSG00000135763             URB2     chr1  229626234 229626234
589  ENSG00000227043        LINC01682     chr1  229885752 229885752
590  ENSG00000228058        LINC01736     chr1  230002730 230002730
591  ENSG00000143641           GALNT2     chr1  230057990 230057990
592  ENSG00000227006       AL136988.2     chr1  230268483 230268483
593  ENSG00000224407       AL136988.1     chr1  230281893 230281893
594  ENSG00000177614            PGBD5     chr1  230426371 230426371
595  ENSG00000232964        LINC01737     chr1  230595583 230595583
596  ENSG00000135775             COG2     chr1  230642489 230642489
597  ENSG00000135744              AGT     chr1  230714297 230714297
598  ENSG00000135773            CAPN9     chr1  230747384 230747384
599  ENSG00000225656       AL118511.2     chr1  230824707 230824707
600  ENSG00000119280         C1orf198     chr1  230869589 230869589
601  ENSG00000223393       AL118511.1     chr1  230874846 230874846
602  ENSG00000143643            TTC13     chr1  230978875 230978875
603  ENSG00000173409             ARV1     chr1  230978981 230978981
604  ENSG00000182118           FAM89A     chr1  231040246 231040246
605  ENSG00000119283           TRIM67     chr1  231162112 231162112
606  ENSG00000235710       AL109810.2     chr1  231187627 231187627
607  ENSG00000143633         C1orf131     chr1  231241187 231241187
608  ENSG00000116906            GNPAT     chr1  231241207 231241207
609  ENSG00000116903            EXOC8     chr1  231337852 231337852
610  ENSG00000010072            SPRTN     chr1  231337104 231337104
611  ENSG00000135766            EGLN1     chr1  231425044 231425044
612  ENSG00000233461       AL445524.1     chr1  231528556 231528556
613  ENSG00000116918            TSNAX     chr1  231528653 231528653
614  ENSG00000270106      TSNAX-DISC1     chr1  231528653 231528653
615  ENSG00000229228        LINC00582     chr1  231612090 231612090
616  ENSG00000162946            DISC1     chr1  231626815 231626815
617  ENSG00000235152       AL353052.1     chr1  232160091 232160091
618  ENSG00000236372       AL353052.2     chr1  232180113 232180113
619  ENSG00000116991          SIPA1L2     chr1  232561558 232561558
620  ENSG00000225919        LINC01745     chr1  232718071 232718071
621  ENSG00000236497        LINC01744     chr1  232742715 232742715
622  ENSG00000212916            MAP10     chr1  232804892 232804892
623  ENSG00000135778            NTPCR     chr1  232950605 232950605
624  ENSG00000135749            PCNX2     chr1  233295713 233295713
625  ENSG00000054267           ARID4B     chr1  235328219 235328219
626  ENSG00000152904            GGPS1     chr1  235327350 235327350
627  ENSG00000162885         B3GALNT2     chr1  235504481 235504481
628  ENSG00000168243             GNG4     chr1  235650754 235650754
629  ENSG00000143669             LYST     chr1  235883640 235883640
630  ENSG00000229463         LYST-AS1     chr1  235839483 235839483
631  ENSG00000237845       AL139161.2     chr1  235943805 235943805
632  ENSG00000229291       AL139161.1     chr1  235971825 235971825
633  ENSG00000116962             NID1     chr1  236065162 236065162
634  ENSG00000077585          GPR137B     chr1  236142505 236142505
635  ENSG00000086619            ERO1B     chr1  236281985 236281985
636  ENSG00000186197          EDARADD     chr1  236348257 236348257
637  ENSG00000116977           LGALS8     chr1  236518000 236518000
638  ENSG00000223776       LGALS8-AS1     chr1  236524508 236524508
639  ENSG00000273058       AL359921.2     chr1  236536704 236536704
640  ENSG00000230325       AL359921.1     chr1  236550280 236550280
641  ENSG00000119285           HEATR1     chr1  236604504 236604504
642  ENSG00000077522            ACTN2     chr1  236686454 236686454
643  ENSG00000116984              MTR     chr1  236795281 236795281
644  ENSG00000244020           MT1HL1     chr1  237004418 237004418
645  ENSG00000198626             RYR2     chr1  237042205 237042205
646  ENSG00000259776       AC093426.1     chr1  239250818 239250818
647  ENSG00000133019            CHRM3     chr1  239386565 239386565
648  ENSG00000234601        CHRM3-AS1     chr1  239899872 239899872
649  ENSG00000231979       AL356361.2     chr1  239916955 239916955
650  ENSG00000155816             FMN2     chr1  240014348 240014348
651  ENSG00000233735       AL359918.2     chr1  240179644 240179644
652  ENSG00000233519       AL590490.1     chr1  240401123 240401123
653  ENSG00000180875            GREM2     chr1  240612149 240612149
654  ENSG00000224359       AL358176.1     chr1  240530452 240530452
655  ENSG00000230015       AL365184.2     chr1  240739853 240739853
656  ENSG00000226919       AL365184.1     chr1  240763382 240763382
657  ENSG00000182901             RGS7     chr1  241357230 241357230
658  ENSG00000225554       AL359764.1     chr1  241424292 241424292
659  ENSG00000091483               FH     chr1  241519761 241519761
660  ENSG00000117009              KMO     chr1  241532134 241532134
661  ENSG00000054277             OPN3     chr1  241677376 241677376
662  ENSG00000203668             CHML     chr1  241640254 241640254
663  ENSG00000162843            WDR64     chr1  241652278 241652278
664  ENSG00000174371             EXO1     chr1  241847967 241847967
665  ENSG00000197769         MAP1LC3C     chr1  241999073 241999073
666  ENSG00000180287             PLD5     chr1  242524696 242524696
667  ENSG00000272865       AL591686.2     chr1  242147514 242147514
668  ENSG00000224525       AL591686.1     chr1  242203555 242203555
669  ENSG00000234116       AL606534.3     chr1  243007468 243007468
670  ENSG00000231512        SEPT14P21     chr1  243052252 243052252
671  ENSG00000214837        LINC01347     chr1  243101744 243101744
672  ENSG00000143702           CEP170     chr1  243255348 243255348
673  ENSG00000227230       AL606534.1     chr1  243135898 243135898
674  ENSG00000232085       AL606534.2     chr1  243164638 243164638
675  ENSG00000054282          SDCCAG8     chr1  243256034 243256034
676  ENSG00000177535           OR2B11     chr1  247458105 247458105
677  ENSG00000169224           GCSAML     chr1  247507058 247507058
678  ENSG00000196242            OR2C3     chr1  247536440 247536440
679  ENSG00000236817       AL606804.1     chr1  247640854 247640854
680  ENSG00000177489            OR2G2     chr1  247588360 247588360
681  ENSG00000177476            OR2G3     chr1  247605586 247605586
682  ENSG00000235749       AL390860.1     chr1  247639749 247639749
683  ENSG00000197437           OR13G1     chr1  247679739 247679739
684  ENSG00000169214            OR6F1     chr1  247716646 247716646
685  ENSG00000241128           OR14A2     chr1  247724043 247724043
686  ENSG00000153230           OR14K1     chr1  247738615 247738615
687  ENSG00000221888            OR1C1     chr1  247760556 247760556
688  ENSG00000196772          OR14A16     chr1  247824119 247824119
689  ENSG00000197591           OR11L1     chr1  247841896 247841896
690  ENSG00000162722           TRIM58     chr1  247857199 247857199
691  ENSG00000238243            OR2W3     chr1  247895587 247895587
692  ENSG00000177462            OR2T8     chr1  247920252 247920252
693  ENSG00000177275           OR2AJ1     chr1  247924889 247924889
694  ENSG00000187080           OR2AK2     chr1  247965233 247965233
695  ENSG00000197454            OR2L5     chr1  248013660 248013660
696  ENSG00000203663            OR2L2     chr1  248030070 248030070
697  ENSG00000198128            OR2L3     chr1  248046836 248046836
698  ENSG00000196071           OR2L13     chr1  248095184 248095184
699  ENSG00000162727            OR2M5     chr1  248145148 248145148
700  ENSG00000198601            OR2M2     chr1  248174821 248174821
701  ENSG00000228198            OR2M3     chr1  248197265 248197265
702  ENSG00000171180            OR2M4     chr1  248231417 248231417
703  ENSG00000177212           OR2T33     chr1  248277976 248277976
704  ENSG00000177201           OR2T12     chr1  248303424 248303424
705  ENSG00000177186            OR2M7     chr1  248324568 248324568
706  ENSG00000177174          OR14C36     chr1  248348775 248348775
707  ENSG00000196944            OR2T4     chr1  248361581 248361581
708  ENSG00000198104            OR2T6     chr1  248375746 248375746
709  ENSG00000175143            OR2T1     chr1  248403048 248403048
710  ENSG00000227152            OR2T7     chr1  248436359 248436359
711  ENSG00000196240            OR2T2     chr1  248445512 248445512
712  ENSG00000196539            OR2T3     chr1  248473351 248473351
713  ENSG00000229255       AC138089.1     chr1  248485484 248485484
714  ENSG00000203661            OR2T5     chr1  248488589 248488589
715  ENSG00000188558            OR2G6     chr1  248508073 248508073
716  ENSG00000224521       AC098483.1     chr1  248548756 248548756
717  ENSG00000182783           OR2T29     chr1  248562772 248562772
718  ENSG00000183310           OR2T34     chr1  248574757 248574757
719  ENSG00000184022           OR2T10     chr1  248597700 248597700
720  ENSG00000177151           OR2T35     chr1  248645278 248645278
721  ENSG00000187701           OR2T27     chr1  248655528 248655528
722  ENSG00000189181           OR14I1     chr1  248682304 248682304
723  ENSG00000229703       CR589904.1     chr1  248691760 248691760
724  ENSG00000175137          SH3BP5L     chr1  248826633 248826633
725  ENSG00000171161           ZNF672     chr1  248838210 248838210
726  ENSG00000171163           ZNF692     chr1  248859144 248859144
727  ENSG00000227237       AL672291.1     chr1  248859164 248859164
728  ENSG00000185220            PGBD2     chr1  248906196 248906196
729  ENSG00000130508             PXDN     chr2    1744852   1744852
730  ENSG00000186487            MYT1L     chr2    2331664   2331664
731  ENSG00000232057       AC093390.1     chr2    1824412   1824412
732  ENSG00000225619        MYT1L-AS1     chr2    2319232   2319232
733  ENSG00000234929       AC018685.2     chr2    2656630   2656630
734  ENSG00000227364       AC018685.1     chr2    2730957   2730957
735  ENSG00000237720       AC011995.2     chr2    2838391   2838391
736  ENSG00000228391       AC011995.1     chr2    2871231   2871231
737  ENSG00000234423        LINC01250     chr2    3126026   3126026
738  ENSG00000236760       AC019118.2     chr2    3145780   3145780
739  ENSG00000226649       AC019118.1     chr2    3156756   3156756
740  ENSG00000032389            EIPR1     chr2    3377882   3377882
741  ENSG00000171853         TRAPPC12     chr2    3379675   3379675
742  ENSG00000225234     TRAPPC12-AS1     chr2    3482409   3482409
743  ENSG00000271868       AC114810.1     chr2    3496956   3496956
744  ENSG00000182551             ADI1     chr2    3519736   3519736
745  ENSG00000235078       AC231981.1     chr2    3519275   3519275
746  ENSG00000242282       AC108488.1     chr2    3536873   3536873
747  ENSG00000255767       AC108488.2     chr2    3547957   3547957
748  ENSG00000171865          RNASEH1     chr2    3558616   3558616
749  ENSG00000234171      RNASEH1-AS1     chr2    3558492   3558492
750  ENSG00000171863             RPS7     chr2    3575205   3575205
751  ENSG00000118004          COLEC11     chr2    3594832   3594832
752  ENSG00000237370       AC010907.2     chr2    3604242   3604242
753  ENSG00000151360             ALLC     chr2    3658195   3658195
754  ENSG00000224661       AC010907.1     chr2    3704153   3704153
755  ENSG00000214866           DCDC2C     chr2    3703592   3703592
756  ENSG00000237401        LINC01304     chr2    3974070   3974070
757  ENSG00000229550       AC012445.1     chr2    4140731   4140731
758  ENSG00000231532        LINC01249     chr2    4656215   4656215
759  ENSG00000232835       AC107057.1     chr2    5556031   5556031
760  ENSG00000224128        LINC01248     chr2    5691488   5691488
761  ENSG00000230090       AC108025.1     chr2    5691118   5691118
762  ENSG00000176887            SOX11     chr2    5692667   5692667
763  ENSG00000236106       AC010729.1     chr2    5726449   5726449
764  ENSG00000237266        LINC01810     chr2    5812596   5812596
765  ENSG00000229370       AC073062.1     chr2   13537673  13537673
766  ENSG00000227718       AC016730.1     chr2   13723048  13723048
767  ENSG00000163029             SMC6     chr2   17800242  17800242
768  ENSG00000178295             GEN1     chr2   17753858  17753858
769  ENSG00000151379            MSGN1     chr2   17816496  17816496
770  ENSG00000170745            KCNS3     chr2   17877847  17877847
771  ENSG00000260331       AC079148.1     chr2   18548204  18548204
772  ENSG00000240857            RDH14     chr2   18560680  18560680
773  ENSG00000250741     NT5C1B-RDH14     chr2   18589564  18589564
774  ENSG00000185013           NT5C1B     chr2   18589572  18589572
775  ENSG00000224626       AC106053.1     chr2   18784807  18784807
776  ENSG00000236204        LINC01376     chr2   19348067  19348067
777  ENSG00000143867             OSR1     chr2   19358653  19358653
778  ENSG00000234597       AC010096.1     chr2   19468961  19468961
779  ENSG00000237992        LINC01808     chr2   19468997  19468997
780  ENSG00000235537       AC009411.2     chr2   21637197  21637197
781  ENSG00000228538       AC009411.1     chr2   21649563  21649563
782  ENSG00000229621        LINC01822     chr2   21710623  21710623
783  ENSG00000228999       AC096570.1     chr2   22531105  22531105
784  ENSG00000234207       AC096570.2     chr2   22377594  22377594
785  ENSG00000233587        LINC01884     chr2   22536479  22536479
786  ENSG00000232451       AC018467.1     chr2   23199056  23199056
787  ENSG00000223530       AC012506.1     chr2   23332044  23332044
788  ENSG00000233714       AC012506.3     chr2   23347654  23347654
789  ENSG00000223634       AC012506.2     chr2   23360376  23360376
790  ENSG00000235497       AC012506.4     chr2   23381299  23381299
791  ENSG00000119771           KLHL29     chr2   23385217  23385217
792  ENSG00000224361       AC011239.1     chr2   23524344  23524344
793  ENSG00000119778           ATAD2B     chr2   23927114  23927114
794  ENSG00000173960           UBXN2A     chr2   23927285  23927285
795  ENSG00000205639           MFSD2B     chr2   24010081  24010081
796  ENSG00000163026             WDCP     chr2   24049575  24049575
797  ENSG00000119782           FKBP1B     chr2   24049701  24049701
798  ENSG00000115128            SF3B6     chr2   24076443  24076443
799  ENSG00000219626          FAM228B     chr2   24076526  24076526
800  ENSG00000115129           TP53I3     chr2   24085861  24085861
801  ENSG00000176732             PFN4     chr2   24123477  24123477
802  ENSG00000232642       AC008073.2     chr2   24175005  24175005
803  ENSG00000186453          FAM228A     chr2   24175069  24175069
804  ENSG00000223754       AC008073.1     chr2   24201698  24201698
805  ENSG00000198399            ITSN2     chr2   24360714  24360714
806  ENSG00000242628       AC009228.1     chr2   24214381  24214381
807  ENSG00000084676            NCOA1     chr2   24491914  24491914
808  ENSG00000184924           PTRHD1     chr2   24793382  24793382
809  ENSG00000138092            CENPO     chr2   24793136  24793136
810  ENSG00000138031            ADCY3     chr2   24919839  24919839
811  ENSG00000271936       AC012073.1     chr2   24825610  24825610
812  ENSG00000115137          DNAJC27     chr2   24972094  24972094
813  ENSG00000224165      DNAJC27-AS1     chr2   24971390  24971390
814  ENSG00000084710            EFR3B     chr2   25042130  25042130
815  ENSG00000115138             POMC     chr2   25168903  25168903
816  ENSG00000230452        LINC01381     chr2   25204313  25204313
817  ENSG00000119772           DNMT3A     chr2   25342590  25342590
818  ENSG00000235072       AC012074.1     chr2   25375845  25375845
819  ENSG00000224220       AC104699.1     chr2   25421117  25421117
820  ENSG00000158125              XDH     chr2   31414715  31414715
821  ENSG00000228563       AL133247.1     chr2   31526942  31526942
822  ENSG00000223647        LINC01946     chr2   31803980  31803980
823  ENSG00000273165       AL121652.1     chr2   31853423  31853423
824  ENSG00000162959            MEMO1     chr2   32011230  32011230
825  ENSG00000162961            DPY30     chr2   32039812  32039812
826  ENSG00000271228       AL121655.1     chr2   32013061  32013061
827  ENSG00000021574            SPAST     chr2   32063547  32063547
828  ENSG00000272716       AL121658.1     chr2   32165757  32165757
829  ENSG00000152683          SLC30A6     chr2   32165841  32165841
830  ENSG00000091106            NLRC4     chr2   32265854  32265854
831  ENSG00000119820            YIPF4     chr2   32277910  32277910
832  ENSG00000272754       AL133245.1     chr2   32321638  32321638
833  ENSG00000115760            BIRC6     chr2   32357028  32357028
834  ENSG00000230046        BIRC6-AS1     chr2   32379599  32379599
835  ENSG00000272027       AC073218.2     chr2   34703606  34703606
836  ENSG00000232153       AC073218.1     chr2   34737118  34737118
837  ENSG00000226994       AC012593.1     chr2   34799850  34799850
838  ENSG00000237320       AC019064.1     chr2   35000160  35000160
839  ENSG00000260025       AC009414.2     chr2   36355114  36355114
840  ENSG00000150938            CRIM1     chr2   36355926  36355926
841  ENSG00000152154         TMEM178A     chr2   39664982  39664982
842  ENSG00000138050          THUMPD2     chr2   39779267  39779267
843  ENSG00000227028       SLC8A1-AS1     chr2   39786453  39786453
844  ENSG00000183023           SLC8A1     chr2   40611053  40611053
845  ENSG00000233128        LINC01794     chr2   40746487  40746487
846  ENSG00000138079           SLC3A1     chr2   44275458  44275458
847  ENSG00000138078            PREPL     chr2   44361862  44361862
848  ENSG00000143919           CAMKMT     chr2   44361950  44361950
849  ENSG00000259439        LINC01833     chr2   44939199  44939199
850  ENSG00000236502         SIX3-AS1     chr2   44941873  44941873
851  ENSG00000138083             SIX3     chr2   44941898  44941898
852  ENSG00000225156       AC012354.1     chr2   44954664  44954664
853  ENSG00000170577             SIX2     chr2   45009430  45009430
854  ENSG00000231156       AC093702.1     chr2   45013668  45013668
855  ENSG00000231054       AC093833.1     chr2   45168583  45168583
856  ENSG00000068784            SRBD1     chr2   45612165  45612165
857  ENSG00000171132            PRKCE     chr2   45651345  45651345
858  ENSG00000228481         U51244.1     chr2   45675476  45675476
859  ENSG00000242441          GTF2A1L     chr2   48617798  48617798
860  ENSG00000138039            LHCGR     chr2   48755730  48755730
861  ENSG00000170820             FSHR     chr2   49154537  49154537
862  ENSG00000179915            NRXN1     chr2   51225575  51225575
863  ENSG00000231918       AC007402.1     chr2   51032601  51032601
864  ENSG00000225444        LINC01867     chr2   52373118  52373118
865  ENSG00000236837       AC139712.3     chr2   52500752  52500752
866  ENSG00000228033       AC010967.1     chr2   52910020  52910020
867  ENSG00000232604       AC010967.2     chr2   52864235  52864235
868  ENSG00000233251       AC007743.1     chr2   56185770  56185770
869  ENSG00000055813          CCDC85A     chr2   56184123  56184123
870  ENSG00000028116             VRK2     chr2   57907629  57907629
871  ENSG00000115392            FANCL     chr2   58241372  58241372
872  ENSG00000273063       AC007250.1     chr2   58241349  58241349
873  ENSG00000225226        LINC01795     chr2   58275877  58275877
874  ENSG00000233723        LINC01122     chr2   58427799  58427799
875  ENSG00000222030        LINC01793     chr2   59217708  59217708
876  ENSG00000233891       AC007179.2     chr2   59733396  59733396
877  ENSG00000231815       AC007179.1     chr2   59434552  59434552
878  ENSG00000170264          FAM161A     chr2   61854143  61854143
879  ENSG00000115484             CCT4     chr2   61888804  61888804
880  ENSG00000236498       AC107081.2     chr2   61868432  61868432
881  ENSG00000173163           COMMD1     chr2   61888724  61888724
882  ENSG00000229839       AC018462.1     chr2   62146881  62146881
883  ENSG00000170340           B3GNT2     chr2   62196113  62196113
884  ENSG00000228541       AC093159.1     chr2   62463127  62463127
885  ENSG00000186889           TMEM17     chr2   62511894  62511894
886  ENSG00000226622       AC092155.1     chr2   62662654  62662654
887  ENSG00000115504            EHBP1     chr2   62673851  62673851
888  ENSG00000226605       AC092567.1     chr2   62858438  62858438
889  ENSG00000231609       AC007098.1     chr2   63048640  63048640
890  ENSG00000115507             OTX1     chr2   63050057  63050057
891  ENSG00000143951            WDPCP     chr2   63827843  63827843
892  ENSG00000014641             MDH1     chr2   63588609  63588609
893  ENSG00000169764             UGP2     chr2   63840940  63840940
894  ENSG00000143952            VPS54     chr2   64019072  64019072
895  ENSG00000228079       AC012368.2     chr2   64088246  64088246
896  ENSG00000197329            PELI1     chr2   64144454  64144454
897  ENSG00000225889       AC012368.1     chr2   64143239  64143239
898  ENSG00000230923        LINC00309     chr2   64205485  64205485
899  ENSG00000238012       AC114752.1     chr2   64332131  64332131
900  ENSG00000238201       AC114752.2     chr2   64341647  64341647
901  ENSG00000230749        MEIS1-AS2     chr2   66441836  66441836
902  ENSG00000232046        LINC01798     chr2   66574030  66574030
903  ENSG00000237179        LINC01797     chr2   66703227  66703227
904  ENSG00000230525        LINC01799     chr2   66904436  66904436
905  ENSG00000232688        LINC01628     chr2   66922457  66922457
906  ENSG00000223859       AC007403.1     chr2   67040546  67040546
907  ENSG00000235885        LINC01828     chr2   67086446  67086446
908  ENSG00000236780        LINC01829     chr2   67215319  67215319
909  ENSG00000236605       AC023115.1     chr2   67324627  67324627
910  ENSG00000143971            ETAA1     chr2   67397319  67397319
911  ENSG00000224173       AC007422.1     chr2   67562067  67562067
912  ENSG00000235495       AC007422.2     chr2   67684077  67684077
913  ENSG00000237013        LINC01812     chr2   67825562  67825562
914  ENSG00000236469       AC007881.2     chr2   71064743  71064743
915  ENSG00000124357             NAGK     chr2   71064344  71064344
916  ENSG00000272735       AC007881.3     chr2   71068125  71068125
917  ENSG00000124370             MCEE     chr2   71130239  71130239
918  ENSG00000124383        MPHOSPH10     chr2   71130314  71130314
919  ENSG00000124374           PAIP2B     chr2   71227083  71227083
920  ENSG00000075292           ZNF638     chr2   71276561  71276561
921  ENSG00000135636             DYSF     chr2   71453722  71453722
922  ENSG00000115353            TACR1     chr2   75199700  75199700
923  ENSG00000270571       AC007681.1     chr2   75154366  75154366
924  ENSG00000115363            EVA1A     chr2   75569722  75569722
925  ENSG00000237293       AC007099.2     chr2   75474453  75474453
926  ENSG00000231172       AC007099.1     chr2   75524068  75524068
927  ENSG00000115364           MRPL19     chr2   75646783  75646783
928  ENSG00000005436            GCFC2     chr2   75710989  75710989
929  ENSG00000270696       AC005034.3     chr2   75660462  75660462
930  ENSG00000270462       AC005034.2     chr2   75697583  75697583
931  ENSG00000270996       AC005034.4     chr2   75719120  75719120
932  ENSG00000176204           LRRTM4     chr2   77593319  77593319
933  ENSG00000234653       AC079117.1     chr2   76985965  76985965
934  ENSG00000227088       AC084149.1     chr2   77654668  77654668
935  ENSG00000230968       AC084149.2     chr2   77672215  77672215
936  ENSG00000233605        LINC01851     chr2   77915934  77915934
937  ENSG00000229494       AC012494.1     chr2   78088730  78088730
938  ENSG00000234877       AC092660.1     chr2   78597911  78597911
939  ENSG00000143954            REG3G     chr2   79025686  79025686
940  ENSG00000172023            REG1B     chr2   79088019  79088019
941  ENSG00000115386            REG1A     chr2   79120362  79120362
942  ENSG00000172016            REG3A     chr2   79159753  79159753
943  ENSG00000066032           CTNNA2     chr2   79185231  79185231
944  ENSG00000229385       AC010975.1     chr2   79500844  79500844
945  ENSG00000224731       AC016716.2     chr2   80030551  80030551
946  ENSG00000162951           LRRTM1     chr2   80304749  80304749
947  ENSG00000237031       AC008067.1     chr2   80618777  80618777
948  ENSG00000230975       AC012355.1     chr2   80870190  80870190
949  ENSG00000235519        LINC01815     chr2   81467468  81467468
950  ENSG00000231781       AC079896.1     chr2   82005700  82005700
951  ENSG00000237498       AC010105.1     chr2   82538711  82538711
952  ENSG00000232548        LINC01809     chr2   83522814  83522814
953  ENSG00000115525          ST3GAL5     chr2   85905199  85905199
954  ENSG00000232504      ST3GAL5-AS1     chr2   85889280  85889280
955  ENSG00000272564       AC012511.1     chr2   85904279  85904279
956  ENSG00000068654           POLR1A     chr2   86106155  86106155
957  ENSG00000132300            PTCD3     chr2   86106182  86106182
958  ENSG00000132305             IMMT     chr2   86195770  86195770
959  ENSG00000273080       AC009309.1     chr2   86195590  86195590
960  ENSG00000132313           MRPL35     chr2   86199355  86199355
961  ENSG00000068615            REEP1     chr2   86338083  86338083
962  ENSG00000115548            KDM3A     chr2   86440647  86440647
963  ENSG00000172071          EIF2AK3     chr2   88627576  88627576
964  ENSG00000234028       AC062029.1     chr2   88627539  88627539
965  ENSG00000153574             RPIA     chr2   88691644  88691644
966  ENSG00000135960             EDAR     chr2  108989372 108989372
967  ENSG00000259863       SH3RF3-AS1     chr2  109128930 109128930
968  ENSG00000172985           SH3RF3     chr2  109129348 109129348
969  ENSG00000186522           SEPT10     chr2  109614206 109614206
970  ENSG00000198142           SOWAHC     chr2  109614334 109614334
971  ENSG00000015568            RGPD5     chr2  109792758 109792758
972  ENSG00000256977            LIMS3     chr2  109898428 109898428
973  ENSG00000204588        LINC01123     chr2  109987063 109987063
974  ENSG00000144063             MALL     chr2  110116566 110116566
975  ENSG00000144061            NPHP1     chr2  110205066 110205066
976  ENSG00000175701             MTLN     chr2  110245420 110245420
977  ENSG00000261760       AC140479.4     chr2  110231106 110231106
978  ENSG00000231538        DPP10-AS3     chr2  114833548 114833548
979  ENSG00000235717        DPP10-AS2     chr2  114835588 114835588
980  ENSG00000235026        DPP10-AS1     chr2  115161343 115161343
981  ENSG00000238207       AC009312.1     chr2  117804174 117804174
982  ENSG00000088205            DDX18     chr2  117814650 117814650
983  ENSG00000236255       AC009404.1     chr2  117833937 117833937
984  ENSG00000115112          TFCP2L1     chr2  121285207 121285207
985  ENSG00000074054           CLASP1     chr2  121649587 121649587
986  ENSG00000265451       AC012447.1     chr2  121530422 121530422
987  ENSG00000236859         NIFK-AS1     chr2  121649650 121649650
988  ENSG00000155438             NIFK     chr2  121736923 121736923
989  ENSG00000211460              TSN     chr2  121737103 121737103
990  ENSG00000224655        LINC01823     chr2  121790444 121790444
991  ENSG00000237856       AC062020.1     chr2  123065321 123065321
992  ENSG00000232740        LINC01826     chr2  123073481 123073481
993  ENSG00000226708       AC073409.1     chr2  123444445 123444445
994  ENSG00000228400       AC079154.1     chr2  124025173 124025173
995  ENSG00000155052          CNTNAP5     chr2  124025287 124025287
996  ENSG00000235491        LINC01889     chr2  125710969 125710969
997  ENSG00000237532       AC012451.1     chr2  128581576 128581576
998  ENSG00000238277       AC068483.1     chr2  129071725 129071725
999  ENSG00000150551            LYPD1     chr2  132671579 132671579
1000 ENSG00000230065       AC010974.1     chr2  132660526 132660526
1001 ENSG00000176771           NCKAP5     chr2  133568463 133568463
1002 ENSG00000233729       AC016909.2     chr2  132915557 132915557
1003 ENSG00000226953       AC010890.1     chr2  133264968 133264968
1004 ENSG00000223430       AC011243.1     chr2  133554315 133554315
1005 ENSG00000152127            MGAT5     chr2  134119983 134119983
1006 ENSG00000152128          TMEM163     chr2  134719000 134719000
1007 ENSG00000224043        CCNT2-AS1     chr2  134918710 134918710
1008 ENSG00000153086            ACMSD     chr2  134838547 134838547
1009 ENSG00000082258            CCNT2     chr2  134918235 134918235
1010 ENSG00000176601          MAP3K19     chr2  135047468 135047468
1011 ENSG00000115839         RAB3GAP1     chr2  135052265 135052265
1012 ENSG00000121988           ZRANB3     chr2  135531236 135531236
1013 ENSG00000048991           R3HDM1     chr2  135531455 135531455
1014 ENSG00000144224            UBXN4     chr2  135741619 135741619
1015 ENSG00000115850              LCT     chr2  135837180 135837180
1016 ENSG00000226806       AC011893.1     chr2  135820191 135820191
1017 ENSG00000076003             MCM6     chr2  135876426 135876426
1018 ENSG00000115866             DARS     chr2  135986100 135986100
1019 ENSG00000231890         DARS-AS1     chr2  135985176 135985176
1020 ENSG00000237262       AC068492.1     chr2  136077892 136077892
1021 ENSG00000121966            CXCR4     chr2  136118165 136118165
1022 ENSG00000144229           THSD7B     chr2  136765545 136765545
1023 ENSG00000150540             HNMT     chr2  137964020 137964020
1024 ENSG00000224231        LINC01832     chr2  138101884 138101884
1025 ENSG00000228043       AC114763.1     chr2  138501698 138501698
1026 ENSG00000230569       AC114763.2     chr2  138470656 138470656
1027 ENSG00000144228            SPOPL     chr2  138501801 138501801
1028 ENSG00000260059       AC092620.3     chr2  138602426 138602426
1029 ENSG00000237772       AC092620.1     chr2  138604510 138604510
1030 ENSG00000144227            NXPH2     chr2  138780348 138780348
1031 ENSG00000226939       AC062021.1     chr2  139366165 139366165
1032 ENSG00000229131       AC016710.1     chr2  139469775 139469775
1033 ENSG00000223554       AC078851.1     chr2  139825877 139825877
1034 ENSG00000224028        LINC01853     chr2  140131780 140131780
1035 ENSG00000168702            LRP1B     chr2  142131701 142131701
1036 ENSG00000115919             KYNU     chr2  142877498 142877498
1037 ENSG00000075884         ARHGAP15     chr2  143091362 143091362
1038 ENSG00000257284       AC013437.1     chr2  143172172 143172172
1039 ENSG00000228655       AC096558.1     chr2  143480789 143480789
1040 ENSG00000225107       AC092484.1     chr2  145588024 145588024
1041 ENSG00000226218       AC079163.1     chr2  145603423 145603423
1042 ENSG00000233842       AC062031.1     chr2  145915090 145915090
1043 ENSG00000231040        LINC01911     chr2  146837749 146837749
1044 ENSG00000227902       AC062032.1     chr2  146879909 146879909
1045 ENSG00000187123            LYPD6     chr2  149329985 149329985
1046 ENSG00000168288           MMADHC     chr2  149587816 149587816
1047 ENSG00000231969       AC007364.1     chr2  149587196 149587196
1048 ENSG00000162947        LINC01931     chr2  149859191 149859191
1049 ENSG00000230645        LINC01818     chr2  150171423 150171423
1050 ENSG00000231420        LINC01817     chr2  150257007 150257007
1051 ENSG00000196504          PRPF40A     chr2  152717997 152717997
1052 ENSG00000177917          ARL6IP6     chr2  152717893 152717893
1053 ENSG00000224612       AC079150.1     chr2  153201726 153201726
1054 ENSG00000227708        LINC01850     chr2  153337705 153337705
1055 ENSG00000177519             RPRM     chr2  153478808 153478808
1056 ENSG00000144278          GALNT13     chr2  153871913 153871913
1057 ENSG00000224675       AC009227.1     chr2  154457438 154457438
1058 ENSG00000238004       AC009227.2     chr2  154459857 154459857
1059 ENSG00000235949       AC061961.1     chr2  154697817 154697817
1060 ENSG00000162989            KCNJ3     chr2  154698299 154698299
1061 ENSG00000230991       AC092625.1     chr2  154968003 154968003
1062 ENSG00000226383        LINC01876     chr2  156254950 156254950
1063 ENSG00000153234            NR4A2     chr2  156342348 156342348
1064 ENSG00000115159             GPD2     chr2  156435290 156435290
1065 ENSG00000136542           GALNT5     chr2  157257598 157257598
1066 ENSG00000136541             ERMN     chr2  157327713 157327713
1067 ENSG00000115165            CYTIP     chr2  157488961 157488961
1068 ENSG00000123612           ACVR1C     chr2  157629005 157629005
1069 ENSG00000234584       AC019186.1     chr2  157736005 157736005
1070 ENSG00000115170            ACVR1     chr2  157875862 157875862
1071 ENSG00000007001             UPP2     chr2  157876702 157876702
1072 ENSG00000270557       AC013731.1     chr2  157877683 157877683
1073 ENSG00000271320       AC091488.1     chr2  157917712 157917712
1074 ENSG00000227480      CCDC148-AS1     chr2  158166650 158166650
1075 ENSG00000153237          CCDC148     chr2  158456753 158456753
1076 ENSG00000144283             PKP4     chr2  158456964 158456964
1077 ENSG00000204380         PKP4-AS1     chr2  158735002 158735002
1078 ENSG00000228586       AC005042.2     chr2  158685903 158685903
1079 ENSG00000163331            DAPL1     chr2  158795317 158795317
1080 ENSG00000115183            TANC1     chr2  158968671 158968671
1081 ENSG00000196151           WDSUB1     chr2  159286799 159286799
1082 ENSG00000123636            BAZ2B     chr2  159616692 159616692
1083 ENSG00000223642       AC008277.1     chr2  159386367 159386367
1084 ENSG00000224152       AC009506.1     chr2  159615296 159615296
1085 ENSG00000226266       AC009961.1     chr2  159712435 159712435
1086 ENSG00000136536           MARCH7     chr2  159712457 159712457
1087 ENSG00000241399            CD302     chr2  159798255 159798255
1088 ENSG00000248672       LY75-CD302     chr2  159904710 159904710
1089 ENSG00000054219             LY75     chr2  159904749 159904749
1090 ENSG00000153246           PLA2R1     chr2  160062610 160062610
1091 ENSG00000115221            ITGB6     chr2  160200313 160200313
1092 ENSG00000153250            RBMS1     chr2  160493794 160493794
1093 ENSG00000224467       AC009313.1     chr2  161160224 161160224
1094 ENSG00000136560             TANK     chr2  161136908 161136908
1095 ENSG00000235724       AC009299.3     chr2  161308303 161308303
1096 ENSG00000227403        LINC01806     chr2  161244739 161244739
1097 ENSG00000115233           PSMD14     chr2  161308038 161308038
1098 ENSG00000136535             TBR1     chr2  161416094 161416094
1099 ENSG00000224076       AC009487.1     chr2  161423577 161423577
1100 ENSG00000144290          SLC4A10     chr2  161424332 161424332
1101 ENSG00000197635             DPP4     chr2  162074542 162074542
1102 ENSG00000230918       AC008063.1     chr2  162073256 162073256
1103 ENSG00000233397       AC008063.2     chr2  162092232 162092232
1104 ENSG00000115263              GCG     chr2  162152404 162152404
1105 ENSG00000236841       AC007750.1     chr2  162159762 162159762
1106 ENSG00000078098              FAP     chr2  162245151 162245151
1107 ENSG00000115267            IFIH1     chr2  162318703 162318703
1108 ENSG00000115271              GCA     chr2  162318840 162318840
1109 ENSG00000184611            KCNH7     chr2  162838730 162838730
1110 ENSG00000237750       AC011900.1     chr2  162768936 162768936
1111 ENSG00000182263             FIGN     chr2  163736012 163736012
1112 ENSG00000237844       AC016766.1     chr2  164352223 164352223
1113 ENSG00000115290            GRB14     chr2  164621848 164621848
1114 ENSG00000082438           COBLL1     chr2  164843679 164843679
1115 ENSG00000236283       AC019197.1     chr2  164840672 164840672
1116 ENSG00000169507         SLC38A11     chr2  164955525 164955525
1117 ENSG00000153253            SCN3A     chr2  165204067 165204067
1118 ENSG00000136531            SCN2A     chr2  165194993 165194993
1119 ENSG00000178662           CSRNP3     chr2  165469647 165469647
1120 ENSG00000115339           GALNT3     chr2  165794682 165794682
1121 ENSG00000235192       AC009495.3     chr2  165794851 165794851
1122 ENSG00000229195       AC009495.1     chr2  165846091 165846091
1123 ENSG00000232411       AC009495.2     chr2  165839098 165839098
1124 ENSG00000123607           TTC21B     chr2  165953843 165953843
1125 ENSG00000236107       AC010127.1     chr2  165957399 165957399
1126 ENSG00000144285            SCN1A     chr2  166149214 166149214
1127 ENSG00000169432            SCN9A     chr2  166376001 166376001
1128 ENSG00000136546            SCN7A     chr2  166494326 166494326
1129 ENSG00000163092            XIRP2     chr2  166888487 166888487
1130 ENSG00000254552        XIRP2-AS1     chr2  167140955 167140955
1131 ENSG00000228222       AC073050.1     chr2  167293171 167293171
1132 ENSG00000235335       AC016723.1     chr2  167941144 167941144
1133 ENSG00000172318          B3GALT1     chr2  167868948 167868948
1134 ENSG00000225205       AC078883.1     chr2  172556596 172556596
1135 ENSG00000152256             PDK1     chr2  172555373 172555373
1136 ENSG00000228016      RAPGEF4-AS1     chr2  172736206 172736206
1137 ENSG00000091428          RAPGEF4     chr2  172735274 172735274
1138 ENSG00000091436          MAP3K20     chr2  173075435 173075435
1139 ENSG00000229434       AC017048.1     chr2  176507702 176507702
1140 ENSG00000236231       AC017048.2     chr2  176531683 176531683
1141 ENSG00000272551       AC017048.3     chr2  176612249 176612249
1142 ENSG00000163364        LINC01116     chr2  176637931 176637931
1143 ENSG00000224577        LINC01117     chr2  176637710 176637710
1144 ENSG00000230552       AC092162.2     chr2  176819310 176819310
1145 ENSG00000227098       AC073636.1     chr2  176849428 176849428
1146 ENSG00000236501       AC074286.1     chr2  177164516 177164516
1147 ENSG00000229337       AC079305.3     chr2  177212662 177212662
1148 ENSG00000170144          HNRNPA3     chr2  177212563 177212563
1149 ENSG00000222043       AC079305.1     chr2  177264359 177264359
1150 ENSG00000144331          ZNF385B     chr2  179861505 179861505
1151 ENSG00000163510            CWC22     chr2  180007113 180007113
1152 ENSG00000225258       AC009478.1     chr2  180692454 180692454
1153 ENSG00000170035           UBE2E3     chr2  180967248 180967248
1154 ENSG00000236153       AC104076.1     chr2  180980090 180980090
1155 ENSG00000238171       AC068196.1     chr2  181105968 181105968
1156 ENSG00000234663        LINC01934     chr2  181086076 181086076
1157 ENSG00000226681       AC020595.1     chr2  181425749 181425749
1158 ENSG00000115232            ITGA4     chr2  181457202 181457202
1159 ENSG00000188452            CERKL     chr2  181680665 181680665
1160 ENSG00000162992          NEUROD1     chr2  181680876 181680876
1161 ENSG00000234595       AC013733.2     chr2  181683113 181683113
1162 ENSG00000225570       AC013733.1     chr2  181693415 181693415
1163 ENSG00000260742       AC009962.1     chr2  181891663 181891663
1164 ENSG00000138434          ITPRID2     chr2  181891833 181891833
1165 ENSG00000150722          PPP1R1C     chr2  181954241 181954241
1166 ENSG00000115252            PDE1A     chr2  182523192 182523192
1167 ENSG00000077232          DNAJC10     chr2  182716041 182716041
1168 ENSG00000162998             FRZB     chr2  182867162 182867162
1169 ENSG00000061676           NCKAP1     chr2  183038858 183038858
1170 ENSG00000162999           DUSP19     chr2  183078559 183078559
1171 ENSG00000224643       AC064871.1     chr2  183108519 183108519
1172 ENSG00000163002            NUP35     chr2  183117513 183117513
1173 ENSG00000272800       AC021851.1     chr2  183214319 183214319
1174 ENSG00000234172       AC093639.1     chr2  183904529 183904529
1175 ENSG00000170396          ZNF804A     chr2  184598366 184598366
1176 ENSG00000226747       AC007966.1     chr2  185740479 185740479
1177 ENSG00000188738            FSIP2     chr2  185738895 185738895
1178 ENSG00000231646        FSIP2-AS1     chr2  185800151 185800151
1179 ENSG00000237877        LINC01473     chr2  186083233 186083233
1180 ENSG00000259915       AC017071.1     chr2  186356773 186356773
1181 ENSG00000065548           ZC3H15     chr2  186486156 186486156
1182 ENSG00000174325            DIRC1     chr2  188790104 188790104
1183 ENSG00000168542           COL3A1     chr2  188974320 188974320
1184 ENSG00000204262           COL5A2     chr2  189225312 189225312
1185 ENSG00000228073       AC133106.1     chr2  189095063 189095063
1186 ENSG00000115368            WDR75     chr2  189441433 189441433
1187 ENSG00000173559            NABP1     chr2  191678068 191678068
1188 ENSG00000225884       AC098872.1     chr2  191793425 191793425
1189 ENSG00000168497           CAVIN2     chr2  191847255 191847255
1190 ENSG00000233766       AC098617.1     chr2  191846539 191846539
1191 ENSG00000144339           TMEFF2     chr2  192195709 192195709
1192 ENSG00000138411            HECW2     chr2  196593692 196593692
1193 ENSG00000144395          CCDC150     chr2  196639554 196639554
1194 ENSG00000119041           GTF3C3     chr2  196799725 196799725
1195 ENSG00000187944          C2orf66     chr2  196810276 196810276
1196 ENSG00000197121            PGAP1     chr2  196927796 196927796
1197 ENSG00000065413          ANKRD44     chr2  197311173 197311173
1198 ENSG00000231621       AC013264.1     chr2  197197991 197197991
1199 ENSG00000225979       AC010746.1     chr2  197311393 197311393
1200 ENSG00000115524            SF3B1     chr2  197435091 197435091
1201 ENSG00000115520           COQ10B     chr2  197453423 197453423
1202 ENSG00000144381            HSPD1     chr2  197516737 197516737
1203 ENSG00000115541            HSPE1     chr2  197499994 197499994
1204 ENSG00000270757       HSPE1-MOB4     chr2  197500413 197500413
1205 ENSG00000115540             MOB4     chr2  197515571 197515571
1206 ENSG00000162944            RFTN2     chr2  197676045 197676045
1207 ENSG00000222017       AC011997.1     chr2  197693106 197693106
1208 ENSG00000247626            MARS2     chr2  197705369 197705369
1209 ENSG00000152430             BOLL     chr2  197786762 197786762
1210 ENSG00000115896            PLCL1     chr2  197804702 197804702
1211 ENSG00000237035       AC020719.1     chr2  198191521 198191521
1212 ENSG00000236653        LINC01923     chr2  198375116 198375116
1213 ENSG00000225421       AC019330.1     chr2  198772356 198772356
1214 ENSG00000231557       AC020718.1     chr2  199071791 199071791
1215 ENSG00000257045       AC016746.1     chr2  199325310 199325310
1216 ENSG00000055044            NOP58     chr2  202265716 202265716
1217 ENSG00000272966       AC064836.2     chr2  202336739 202336739
1218 ENSG00000273456       AC064836.3     chr2  202375604 202375604
1219 ENSG00000204217            BMPR2     chr2  202376936 202376936
1220 ENSG00000138439          FAM117B     chr2  202635188 202635188
1221 ENSG00000163596            ICA1L     chr2  202871985 202871985
1222 ENSG00000138442            WDR12     chr2  203014798 203014798
1223 ENSG00000138380             CARF     chr2  202912214 202912214
1224 ENSG00000144426           NBEAL1     chr2  203014879 203014879
1225 ENSG00000119004          CYP20A1     chr2  203238940 203238940
1226 ENSG00000138443             ABI2     chr2  203328219 203328219
1227 ENSG00000256458       AC080075.1     chr2  203329226 203329226
1228 ENSG00000173166            RAPH1     chr2  203535410 203535410
1229 ENSG00000178562             CD28     chr2  203706475 203706475
1230 ENSG00000163599            CTLA4     chr2  203867771 203867771
1231 ENSG00000163600             ICOS     chr2  203936748 203936748
1232 ENSG00000234714       AC009965.1     chr2  204090457 204090457
1233 ENSG00000237271       AC009498.1     chr2  204234985 204234985
1234 ENSG00000236634       AC016903.1     chr2  204473837 204473837
1235 ENSG00000237843       AC016903.2     chr2  204475356 204475356
1236 ENSG00000116117           PARD3B     chr2  204545793 204545793
1237 ENSG00000260171       AC008269.2     chr2  206822294 206822294
1238 ENSG00000229321       AC008269.1     chr2  206866795 206866795
1239 ENSG00000144410              CPO     chr2  206939554 206939554
1240 ENSG00000118263             KLF7     chr2  207167267 207167267
1241 ENSG00000224342       AC007879.1     chr2  207173634 207173634
1242 ENSG00000234902       AC007879.3     chr2  207236066 207236066
1243 ENSG00000225916       AC007879.2     chr2  207226949 207226949
1244 ENSG00000240440       AC007879.4     chr2  207237875 207237875
1245 ENSG00000229647          MYOSLID     chr2  207239650 207239650
1246 ENSG00000223725       AC009226.1     chr2  207529795 207529795
1247 ENSG00000225064        LINC01802     chr2  207260445 207260445
1248 ENSG00000118260            CREB1     chr2  207529737 207529737
1249 ENSG00000144401         METTL21A     chr2  207625928 207625928
1250 ENSG00000224137        LINC01857     chr2  207662375 207662375
1251 ENSG00000163249           CCNYL1     chr2  207711540 207711540
1252 ENSG00000272851       AC096772.1     chr2  207754435 207754435
1253 ENSG00000163251             FZD5     chr2  207769563 207769563
1254 ENSG00000178385          PLEKHM3     chr2  208025560 208025560
1255 ENSG00000118231            CRYGD     chr2  208124501 208124501
1256 ENSG00000163254            CRYGC     chr2  208129830 208129830
1257 ENSG00000182187            CRYGB     chr2  208146168 208146168
1258 ENSG00000168582            CRYGA     chr2  208163576 208163576
1259 ENSG00000188674          C2orf80     chr2  208190073 208190073
1260 ENSG00000138413             IDH1     chr2  208266074 208266074
1261 ENSG00000231908         IDH1-AS1     chr2  208255247 208255247
1262 ENSG00000115020          PIKFYVE     chr2  208266267 208266267
1263 ENSG00000144407            PTH2R     chr2  208359714 208359714
1264 ENSG00000078018             MAP2     chr2  209424058 209424058
1265 ENSG00000144406            UNC80     chr2  209771993 209771993
1266 ENSG00000197713              RPE     chr2  210002565 210002565
1267 ENSG00000144445          KANSL1L     chr2  210171383 210171383
1268 ENSG00000272807       AC007038.2     chr2  210028417 210028417
1269 ENSG00000229127       AC007038.1     chr2  210030733 210030733
1270 ENSG00000115361            ACADL     chr2  210225491 210225491
1271 ENSG00000168530             MYL1     chr2  210315190 210315190
1272 ENSG00000234281       LANCL1-AS1     chr2  210324759 210324759
1273 ENSG00000115365           LANCL1     chr2  210477652 210477652
1274 ENSG00000021826             CPS1     chr2  210477682 210477682
1275 ENSG00000178568            ERBB4     chr2  212538841 212538841
1276 ENSG00000234308        LINC01878     chr2  212795331 212795331
1277 ENSG00000223373       AC108066.1     chr2  212911003 212911003
1278 ENSG00000030419            IKZF2     chr2  213152427 213152427
1279 ENSG00000270659       AC079610.2     chr2  213152970 213152970
1280 ENSG00000236193        LINC01953     chr2  213167712 213167712
1281 ENSG00000272519       AC079610.3     chr2  213276152 213276152
1282 ENSG00000196096       AC079610.1     chr2  213284205 213284205
1283 ENSG00000144451           SPAG16     chr2  213284379 213284379
1284 ENSG00000197585       AC068051.1     chr2  214684246 214684246
1285 ENSG00000174453            VWC2L     chr2  214411065 214411065
1286 ENSG00000138376            BARD1     chr2  214809711 214809711
1287 ENSG00000229267       AC016708.1     chr2  214810229 214810229
1288 ENSG00000144452           ABCA12     chr2  215138428 215138428
1289 ENSG00000227769       AC072062.1     chr2  215004782 215004782
1290 ENSG00000237571       AC073284.1     chr2  215274992 215274992
1291 ENSG00000138363             ATIC     chr2  215311817 215311817
1292 ENSG00000115414              FN1     chr2  215436172 215436172
1293 ENSG00000230695       AC012462.3     chr2  215436253 215436253
1294 ENSG00000225166       AC012462.1     chr2  215453707 215453707
1295 ENSG00000228618       AC012462.2     chr2  215476667 215476667
1296 ENSG00000234938       AC012668.2     chr2  215545526 215545526
1297 ENSG00000237525       AC012668.3     chr2  215533133 215533133
1298 ENSG00000227981       AC012668.1     chr2  215582635 215582635
1299 ENSG00000230838        LINC01614     chr2  215718043 215718043
1300 ENSG00000224819       AC093843.1     chr2  220791078 220791078
1301 ENSG00000116106            EPHA4     chr2  221574202 221574202
1302 ENSG00000272944       AC079834.2     chr2  221572506 221572506
1303 ENSG00000234446       AC068489.1     chr2  221637543 221637543
1304 ENSG00000135903             PAX3     chr2  222298996 222298996
1305 ENSG00000163081          CCDC140     chr2  222298147 222298147
1306 ENSG00000267034       AC010980.2     chr2  222318653 222318653
1307 ENSG00000163082            SGPP2     chr2  222424517 222424517
1308 ENSG00000261428       AC097461.1     chr2  222569719 222569719
1309 ENSG00000116120            FARSB     chr2  222656337 222656337
1310 ENSG00000124003           MOGAT1     chr2  222671786 222671786
1311 ENSG00000123983            ACSL3     chr2  222860934 222860934
1312 ENSG00000234193       AC013476.1     chr2  222919363 222919363
1313 ENSG00000152049            KCNE4     chr2  223051814 223051814
1314 ENSG00000231189       AC013448.1     chr2  223498773 223498773
1315 ENSG00000235610       AC013448.2     chr2  223505476 223505476
1316 ENSG00000171951             SCG2     chr2  223602503 223602503
1317 ENSG00000152056            AP1S3     chr2  223838027 223838027
1318 ENSG00000085449            WDFY1     chr2  223945387 223945387
1319 ENSG00000135900           MRPL44     chr2  223957404 223957404
1320 ENSG00000228802       AC073641.1     chr2  223967706 223967706
1321 ENSG00000135919         SERPINE2     chr2  224039319 224039319
1322 ENSG00000124019          FAM124B     chr2  224402085 224402085
1323 ENSG00000036257             CUL3     chr2  224585397 224585397
1324 ENSG00000135905           DOCK10     chr2  225042445 225042445
1325 ENSG00000144460            NYAP2     chr2  225399710 225399710
1326 ENSG00000273301       AC016717.2     chr2  225698514 225698514
1327 ENSG00000153820           SPHKAP     chr2  228181645 228181645
1328 ENSG00000232023        LINC01807     chr2  228611395 228611395
1329 ENSG00000228226       AC012070.1     chr2  228684580 228684580
1330 ENSG00000163273             NPPC     chr2  231926403 231926403
1331 ENSG00000144535           DIS3L2     chr2  231961245 231961245
1332 ENSG00000227033       AC019130.1     chr2  232015720 232015720
1333 ENSG00000163283             ALPP     chr2  232378534 232378534
1334 ENSG00000224516       AC068134.1     chr2  232381674 232381674
1335 ENSG00000163286             ALPG     chr2  232406843 232406843
1336 ENSG00000237087       AC068134.2     chr2  232421461 232421461
1337 ENSG00000163295             ALPI     chr2  232456123 232456123
1338 ENSG00000171551            ECEL1     chr2  232487828 232487828
1339 ENSG00000237412           PRSS56     chr2  232520463 232520463
1340 ENSG00000135902            CHRND     chr2  232525993 232525993
1341 ENSG00000196811            CHRNG     chr2  232539727 232539727
1342 ENSG00000221944            TIGD1     chr2  232550592 232550592
1343 ENSG00000135930           EIF4E2     chr2  232550052 232550052
1344 ENSG00000237126       AC073254.1     chr2  232611971 232611971
1345 ENSG00000115468            EFHD1     chr2  232606057 232606057
1346 ENSG00000204120           GIGYF2     chr2  232697299 232697299
1347 ENSG00000115474           KCNJ13     chr2  232776568 232776568
1348 ENSG00000182600            SNORC     chr2  232857270 232857270
1349 ENSG00000066248             NGEF     chr2  233013272 233013272
1350 ENSG00000222001       AC106876.1     chr2  233012614 233012614
1351 ENSG00000115488             NEU2     chr2  233032672 233032672
1352 ENSG00000168918           INPP5D     chr2  233059967 233059967
1353 ENSG00000085978          ATG16L1     chr2  233210051 233210051
1354 ENSG00000130561              SAG     chr2  233307816 233307816
1355 ENSG00000259793       AC013726.1     chr2  233353416 233353416
1356 ENSG00000077044             DGKD     chr2  233354507 233354507
1357 ENSG00000085982            USP40     chr2  233566782 233566782
1358 ENSG00000242366           UGT1A8     chr2  233617645 233617645
1359 ENSG00000242515          UGT1A10     chr2  233636454 233636454
1360 ENSG00000241119           UGT1A9     chr2  233671853 233671853
1361 ENSG00000244122           UGT1A7     chr2  233681938 233681938
1362 ENSG00000167165           UGT1A6     chr2  233691607 233691607
1363 ENSG00000224814       AC114812.2     chr2  233708699 233708699
1364 ENSG00000240224           UGT1A5     chr2  233712992 233712992
1365 ENSG00000244474           UGT1A4     chr2  233718778 233718778
1366 ENSG00000243135           UGT1A3     chr2  233729108 233729108
1367 ENSG00000241635           UGT1A1     chr2  233760248 233760248
1368 ENSG00000185038           MROH2A     chr2  233775679 233775679
1369 ENSG00000123485            HJURP     chr2  233854566 233854566
1370 ENSG00000144481            TRPM8     chr2  233917398 233917398
1371 ENSG00000237581       AC005538.1     chr2  233955435 233955435
1372 ENSG00000072080             SPP2     chr2  234050679 234050679
1373 ENSG00000226442       AC006037.1     chr2  234109081 234109081
1374 ENSG00000261298       AC122134.1     chr2  234222838 234222838
1375 ENSG00000228162       AC097713.1     chr2  234438328 234438328
1376 ENSG00000231682        LINC01891     chr2  234454595 234454595
1377 ENSG00000188042            ARL4C     chr2  234497053 234497053
1378 ENSG00000130147           SH3BP4     chr2  234951973 234951973
1379 ENSG00000226542       AC114814.1     chr2  235088586 235088586
1380 ENSG00000235293       AC114814.3     chr2  235177896 235177896
1381 ENSG00000157985            AGAP1     chr2  235494089 235494089
1382 ENSG00000222007       AC064874.1     chr2  235783387 235783387
1383 ENSG00000223587        LINC01986     chr3      23757     23757
1384 ENSG00000224918       AC066595.1     chr3      54346     54346
1385 ENSG00000134121             CHL1     chr3     196596    196596
1386 ENSG00000234661         CHL1-AS1     chr3     385795    385795
1387 ENSG00000224957        LINC01266     chr3     536231    536231
1388 ENSG00000224239       AC090044.1     chr3     857124    857124
1389 ENSG00000235158       AC087430.1     chr3    1008135   1008135
1390 ENSG00000134115            CNTN6     chr3    1092576   1092576
1391 ENSG00000225044       AC018814.1     chr3    1987470   1987470
1392 ENSG00000144619            CNTN4     chr3    2098813   2098813
1393 ENSG00000227588        CNTN4-AS2     chr3    2144241   2144241
1394 ENSG00000237990        CNTN4-AS1     chr3    3069242   3069242
1395 ENSG00000091181            IL5RA     chr3    3126613   3126613
1396 ENSG00000072756            TRNT1     chr3    3126916   3126916
1397 ENSG00000113851             CRBN     chr3    3179727   3179727
1398 ENSG00000271870       AC024060.1     chr3    3152942   3152942
1399 ENSG00000226022       AC026167.1     chr3    6148484   6148484
1400 ENSG00000189229       AC069277.1     chr3    6490479   6490479
1401 ENSG00000226258         GRM7-AS3     chr3    6805449   6805449
1402 ENSG00000196277             GRM7     chr3    6770001   6770001
1403 ENSG00000237665         GRM7-AS2     chr3    6894022   6894022
1404 ENSG00000236202         GRM7-AS1     chr3    7560333   7560333
1405 ENSG00000270207       AC068313.1     chr3    7607897   7607897
1406 ENSG00000197548             ATG7     chr3   11272309  11272309
1407 ENSG00000144560            VGLL4     chr3   11771350  11771350
1408 ENSG00000271716       AC022001.2     chr3   11607184  11607184
1409 ENSG00000272483       AC022001.3     chr3   11611602  11611602
1410 ENSG00000206561             COLQ     chr3   15521751  15521751
1411 ENSG00000131373            HACL1     chr3   15601852  15601852
1412 ENSG00000169814              BTD     chr3   15601341  15601341
1413 ENSG00000206560          ANKRD28     chr3   15859771  15859771
1414 ENSG00000131386          GALNT15     chr3   16174649  16174649
1415 ENSG00000154813             DPH3     chr3   16264972  16264972
1416 ENSG00000154814           OXNAD1     chr3   16265160  16265160
1417 ENSG00000131378            RFTN1     chr3   16514026  16514026
1418 ENSG00000271964       AC090948.1     chr3   16314439  16314439
1419 ENSG00000272498       AC090948.2     chr3   16339308  16339308
1420 ENSG00000272529       AC090948.3     chr3   16345126  16345126
1421 ENSG00000269391       AC010139.1     chr3   16530771  16530771
1422 ENSG00000233570        LINC00690     chr3   16536320  16536320
1423 ENSG00000092345             DAZL     chr3   16670306  16670306
1424 ENSG00000229271       AC091493.1     chr3   16697479  16697479
1425 ENSG00000154822            PLCL2     chr3   16802651  16802651
1426 ENSG00000226441        PLCL2-AS1     chr3   17044192  17044192
1427 ENSG00000131374           TBC1D5     chr3   18444817  18444817
1428 ENSG00000226238       AC132807.1     chr3   17990023  17990023
1429 ENSG00000182568            SATB1     chr3   18445588  18445588
1430 ENSG00000183960            KCNH8     chr3   19148454  19148454
1431 ENSG00000163576             EFHB     chr3   19947025  19947025
1432 ENSG00000144566            RAB5A     chr3   19947079  19947079
1433 ENSG00000183977            PP2D1     chr3   20012330  20012330
1434 ENSG00000114166            KAT2B     chr3   20040023  20040023
1435 ENSG00000129810             SGO1     chr3   20186292  20186292
1436 ENSG00000231304         SGO1-AS1     chr3   20174244  20174244
1437 ENSG00000261734       AC116096.1     chr3   20388249  20388249
1438 ENSG00000151789          ZNF385D     chr3   22373321  22373321
1439 ENSG00000225542      ZNF385D-AS1     chr3   21542816  21542816
1440 ENSG00000223351      ZNF385D-AS2     chr3   21942566  21942566
1441 ENSG00000233153       UBE2E2-AS1     chr3   23202578  23202578
1442 ENSG00000182247           UBE2E2     chr3   23203020  23203020
1443 ENSG00000223791       UBE2E1-AS1     chr3   23806905  23806905
1444 ENSG00000170142           UBE2E1     chr3   23805903  23805903
1445 ENSG00000197885          NKIRAS1     chr3   23946591  23946591
1446 ENSG00000174748            RPL15     chr3   23916545  23916545
1447 ENSG00000174738            NR1D2     chr3   23945260  23945260
1448 ENSG00000224074        LINC00691     chr3   24103238  24103238
1449 ENSG00000151090             THRB     chr3   24495756  24495756
